:0400000007EF00F016
:0A0008007A823CED14F006EF17F0C9
:0510000000256900005D
:10100600000E0001BA6F000EBB6F000EBC6F000E23
:10101600BD6F40EF0AF0AC98AC94B896B751D96E54
:10102600DA6ADECFB8F0DDCFB9F0B8C080F0B9C06B
:1010360081F0826B836B000E9DEC0FF080C092F006
:1010460081C093F082C094F083C095F0000E000139
:101056008E6F240E8F6FF40E906F4A0E916FE9EC2F
:101066000CF08EC0BEF08FC0BFF090C0C0F091C033
:10107600C1F0000E0001926F000E936F800E946F08
:10108600420E956FBEC08EF0BFC08FF0C0C090F00C
:10109600C1C091F0E9EC0CF08EC0A7F08FC0A8F0AB
:1010A60090C0A9F091C0AAF0000E0001AB6F000E2F
:1010B600AC6F800EAD6FBF0EAE6F88EC0AF0A7C0A6
:1010C600BAF0A8C0BBF0A9C0BCF0AAC0BDF06AEFD8
:1010D6000AF0AC98AC84B896B751D96EDA6ADECF0E
:1010E600B8F0DDCFB9F0B8C080F0B9C081F0826B3E
:1010F600836B000E9DEC0FF080C092F081C093F0E0
:1011060082C094F083C095F0000E00018E6F240E0D
:101116008F6FF40E906F4A0E916FE9EC0CF08EC053
:10112600BEF08FC0BFF090C0C0F091C0C1F0000EFD
:101136000001926F000E936F800E946F410E956FB3
:10114600BEC08EF0BFC08FF0C0C090F0C1C091F09D
:10115600E9EC0CF08EC0A7F08FC0A8F090C0A9F003
:1011660091C0AAF0000E0001AB6F000EAC6F800EAE
:10117600AD6FBF0EAE6F88EC0AF0A7C0BAF0A8C07C
:10118600BBF0A9C0BCF0AAC0BDF06AEF0AF0AC98EB
:10119600AC94B886B751D96EDA6ADECFB8F0DDCF37
:1011A600B9F0B8C080F0B9C081F0826B836B000ED5
:1011B6009DEC0FF080C092F081C093F082C094F055
:1011C60083C095F0000E00018E6F240E8F6FF40E13
:1011D600906F4A0E916FE9EC0CF08EC0BEF08FC096
:1011E600BFF090C0C0F091C0C1F0000E0001926F38
:1011F600000E936F800E946F410E956FBEC08EF0F9
:10120600BFC08FF0C0C090F0C1C091F0E9EC0CF007
:101216008EC0A7F08FC0A8F090C0A9F091C0AAF028
:10122600000E0001AB6F000EAC6F800EAD6FBF0EEF
:10123600AE6F88EC0AF0A7C0BAF0A8C0BBF0A9C090
:10124600BCF0AAC0BDF06AEF0AF0AC98AC84B886D0
:10125600B751D96EDA6ADECFB8F0DDCFB9F0B8C0D3
:1012660080F0B9C081F0826B836B000E9DEC0FF0AD
:1012760080C092F081C093F082C094F083C095F054
:10128600000E00018E6F240E8F6FF40E906F4A0EC3
:10129600916FE9EC0CF08EC0BEF08FC0BFF090C02D
:1012A600C0F091C0C1F0000E0001926F000E936F66
:1012B600800E946F400E956FBEC08EF0BFC08FF04B
:1012C600C0C090F0C1C091F0E9EC0CF08EC0A7F060
:1012D6008FC0A8F090C0A9F091C0AAF0000E00013E
:1012E600AB6F000EAC6F800EAD6FBF0EAE6F88ECAD
:1012F6000AF0A7C0BAF0A8C0BBF0A9C0BCF0AAC04B
:10130600BDF06AEF0AF0AC88B896B751D96EDA6AC2
:10131600DECFB8F0DDCFB9F0B8C080F0B9C081F04B
:10132600826B836B000E9DEC0FF080C092F081C043
:1013360093F082C094F083C095F0000E00018E6F8A
:10134600240E8F6FF40E906F4A0E916FE9EC0CF03D
:101356008EC0BEF08FC0BFF090C0C0F091C0C1F08B
:10136600000E0001926F000E936F800E946F400E78
:10137600956FBEC08EF0BFC08FF0C0C090F0C1C0E8
:1013860091F0E9EC0CF08EC0A7F08FC0A8F090C0E9
:10139600A9F091C0AAF0000E0001AB6F000EAC6F71
:1013A600800EAD6FBF0EAE6F88EC0AF0A7C0BAF024
:1013B600A8C0BBF0A9C0BCF0AAC0BDF06AEF0AF095
:1013C600AC88B886B751D96EDA6ADECFB8F0DDCF11
:1013D600B9F0B8C080F0B9C081F0826B836B000EA3
:1013E6009DEC0FF080C092F081C093F082C094F023
:1013F60083C095F0000E00018E6F240E8F6FF40EE1
:10140600906F4A0E916FE9EC0CF08EC0BEF08FC063
:10141600BFF090C0C0F091C0C1F0000E0001926F05
:10142600000E936F800E946F400E956FBEC08EF0C7
:10143600BFC08FF0C0C090F0C1C091F0E9EC0CF0D5
:101446008EC0A7F08FC0A8F090C0A9F091C0AAF0F6
:10145600000E0001AB6F000EAC6F800EAD6FBF0EBD
:10146600AE6F88EC0AF0A7C0BAF0A8C0BBF0A9C05E
:10147600BCF0AAC0BDF06AEF0AF0B751D96EDA6ABD
:10148600020ED926DF50B86FB96BB951000AD8B42D
:101496004FEF0AF06AEF0AF0B851000AD8B40EEF1F
:1014A60008F0010AD8B46CEF08F0030AD8B4CAEF02
:1014B60008F0010AD8B428EF09F0070AD8B486EF75
:1014C60009F0010AD8B4E3EF09F06AEF0AF0BAC0EE
:1014D60080F0BBC081F0BCC082F0BDC083F0E3ECFD
:1014E60012F000018051AF6EBAC080F0BBC081F02F
:1014F600BCC082F0BDC083F0E3EC12F0000181C0F5
:1015060080F0816B8051B06E12000001AA51800BF1
:10151600B36FAA51AA25B56FA9AF94EF0AF096EF5B
:101526000AF097EF0AF0B581B551D8B49DEF0AF0ED
:101536009FEF0AF0B4EF0AF0B529D8A4A5EF0AF098
:10154600A7EF0AF0AFEF0AF0000EA76F000EA86F24
:10155600000EA96F000EAA6FA98F000EAA6FBCEF2E
:101566000AF0000EA76F000EA86F000EA96F000EFE
:10157600AA6FAE51800BB46FB351B419D8B4C6EF8D
:101586000AF0C8EF0AF0C9EF0AF0B38DAE51AE25E6
:10159600B46FADAFD1EF0AF0D3EF0AF0D4EF0AF093
:1015A600B481B451D8B4DAEF0AF0DCEF0AF0F1EF07
:1015B6000AF0B429D8A4E2EF0AF0E4EF0AF0ECEF5F
:1015C6000AF0000EAB6F000EAC6F000EAD6F000E92
:1015D600AE6FAD8F000EAE6FF9EF0AF0000EAB6F77
:1015E600000EAC6F000EAD6F000EAE6FB551B45D60
:1015F600D8B000EF0BF002EF0BF029EF0BF0B3AD14
:1016060007EF0BF009EF0BF00BEF0BF0800EB31B9F
:10161600B5C0B6F0B4C0B5F0B6C0B4F0A7C0B6F069
:10162600ABC0A7F0B6C0ABF0A8C0B6F0ACC0A8F08F
:10163600B6C0ACF0A9C0B6F0ADC0A9F0B6C0ADF06A
:10164600AAC0B6F0AEC0AAF0B6C0AEF0000EB66F35
:10165600B551B4C0AFF0B06BAF5F000EB05BB0BFBA
:101666003EEF0BF0B05109E11A0EAF5DD8A03EEF88
:101676000BF040EF0BF077EF0BF0A751A811A91173
:10168600AA11D8A449EF0BF04CEF0BF0010E4DEF69
:101696000BF0000EB66F000EA76F000EA86F000EBF
:1016A600A96F000EAA6FB4C0B5F080EF0BF0B6A11B
:1016B6005FEF0BF061EF0BF067EF0BF0D890B631F0
:1016C6000109B66F69EF0BF0D890B633A7A16EEF9C
:1016D6000BF070EF0BF071EF0BF0B68FAA35AA3353
:1016E600A933A833A733B52BB451B55DD8A07EEF87
:1016F6000BF080EF0BF05AEF0BF0B3BD85EF0BF05C
:1017060087EF0BF0C7EF0BF0B551D8A48DEF0BF0B8
:101716008FEF0BF099EF0BF0000EA76F000EA86F7E
:10172600000EA96F000EAA6FE8EF0CF0AB51A727C9
:10173600AC51A823AD51A923AE51AA23AAA1A6EF65
:101746000BF0A8EF0BF054EF0CF0B6A1ADEF0BF0D9
:10175600AFEF0BF0B5EF0BF0D890B6310109B66FCD
:10176600B7EF0BF0D890B633A7A1BCEF0BF0BEEFE6
:101776000BF0BFEF0BF0B68FAA35AA33A933A83307
:10178600A733B52B54EF0CF0AB51A75DAC51A8595C
:10179600AD51A959AA51800AAF6FAE51800AAF590F
:1017A600D8B0D8EF0BF0DAEF0BF005EF0CF0A7513D
:1017B600AB5DAF6FA851AC59B06FA951AD59B16FC0
:1017C600AA51AE59B26FFF0EAF25A76FFF0EB0211B
:1017D600A86FFF0EB121A96FFF0EB221AA6F800E6E
:1017E600B31BB66DB651D8A4FBEF0BF0FDEF0BF0B3
:1017F6000DEF0CF0010EA727000EA823A923AA239C
:101806000DEF0CF0AB51A75FAC51A85BAD51A95BD6
:10181600AE51AA5BA751A811A911AA11D8A416EF17
:101826000CF018EF0CF04DEF0CF0B651D8A41EEFEB
:101836000CF020EF0CF04DEF0CF0000EA76F000E31
:10184600A86F000EA96F000EAA6FE8EF0CF0D890F3
:10185600A737A837A937AA37B6AF34EF0CF036EF5B
:101866000CF037EF0CF0A781B6A13CEF0CF03EEF81
:101876000CF042EF0CF0D880B63744EF0CF0D8905D
:10188600B637B551D8B44AEF0CF04CEF0CF04DEF2B
:101896000CF0B507A9AF52EF0CF054EF0CF02AEF9D
:1018A6000CF0000EB46FB6AF5BEF0CF05DEF0CF012
:1018B60075EF0CF0B6C0AFF07F0EAF17D8B466EF79
:1018C6000CF068EF0CF06CEF0CF0010EB46F75EFD6
:1018D6000CF0A7A171EF0CF073EF0CF075EF0CF0A4
:1018E60068EF0CF0B451D8B47BEF0CF07DEF0CF040
:1018F600A8EF0CF0010EA727000EA823A923AA2300
:10190600AAA188EF0CF08AEF0CF0A8EF0CF0A7C0A4
:10191600AFF0A8C0B0F0A9C0B1F0AAC0B2F0B2351D
:10192600B233B133B033AF33AFC0A7F0B0C0A8F015
:10193600B1C0A9F0B2C0AAF0B529D8B4A5EF0CF091
:10194600A7EF0CF0A8EF0CF0B52BB529D8B4AEEF85
:101956000CF0B0EF0CF0B8EF0CF0B551D8A4B6EF20
:101966000CF0B8EF0CF0CAEF0CF0000EA76F000EEB
:10197600A86F000EA96F000EAA6FB551D8A4C6EFC6
:101986000CF0C8EF0CF0CAEF0CF0000EB36FB5A167
:10199600CFEF0CF0D1EF0CF0D4EF0CF0A98FD5EF10
:1019A6000CF0A99FD890B531AA6FB3AFDDEF0CF05C
:1019B600DFEF0CF0E0EF0CF0AA8FA7C0A7F0A8C0ED
:1019C600A8F0A9C0A9F0AAC0AAF01200000191517E
:1019D600800B9E6F91519125A56F90AFF5EF0CF09E
:1019E600F7EF0CF0F8EF0CF0A581A551D8B4FEEF97
:1019F6000CF000EF0DF015EF0DF0A529D8A406EFB9
:101A06000DF008EF0DF010EF0DF0000E8E6F000ECA
:101A16008F6F000E906F000E916F908F000E916F7A
:101A26001DEF0DF0000E8E6F000E8F6F000E906F83
:101A3600000E916F9551800B9E1B95519525A66FB3
:101A460094AF28EF0DF02AEF0DF02BEF0DF0A681E5
:101A5600A651D8B431EF0DF033EF0DF048EF0DF08D
:101A6600A629D8A439EF0DF03BEF0DF043EF0DF0AA
:101A7600000E926F000E936F000E946F000E956F1E
:101A8600948F000E956F50EF0DF0000E926F000EC2
:101A9600936F000E946F000E956F925193119411EF
:101AA6009511D8A459EF0DF05BEF0DF073EF0DF023
:101AB600000E8E6F000E8F6F000E906F000E916FEE
:101AC600800E90137F0E91139E5191138EC08EF04F
:101AD6008FC08FF090C090F091C091F0B6EF0EF0ED
:101AE600A551D8A479EF0DF07BEF0DF085EF0DF041
:101AF600000E8E6F000E8F6F000E906F000E916FAE
:101B0600B6EF0EF0A651A5C096F0976B965F000E45
:101B1600975B7F0E96259F6F000E9721A06F8EC054
:101B26009AF08FC09BF090C09CF091C09DF0000E83
:101B36008E6F000E8F6F000E906F000E916F000E6D
:101B4600A16F000EA26F000EA36F000EA46F000E11
:101B5600A66FE6EF0DF0A651D8B4B4EF0DF0B6EFD0
:101B66000DF0CDEF0DF0D8909A379B379C379D3707
:101B7600D8908E378F3790379137A4AFC5EF0DF0D9
:101B8600C7EF0DF0C8EF0DF08E81D890A137A237C0
:101B9600A337A43792519A5D93519B5994519C59FE
:101BA60095519D59D8A0DAEF0DF0DCEF0DF0E5EF79
:101BB6000DF0A48D92519A5F93519B5B94519C5B5F
:101BC60095519D5BA62B190EA665ECEF0DF0EEEF79
:101BD6000DF0AEEF0DF09A519B119C119D11D8B4EA
:101BE600F7EF0DF0F9EF0DF011EF0EF0A18111EF07
:101BF6000EF0D8908E378F3790379137A4AF06EF17
:101C06000EF008EF0EF009EF0EF08E81D890A13796
:101C1600A237A337A4379F07D8A0A00790AF16EF27
:101C26000EF018EF0EF0FCEF0DF0000EA66FA4AF4D
:101C36001FEF0EF021EF0EF045EF0EF0FF0EA1158F
:101C4600966FFF0EA215976FFF0EA315986F7F0E66
:101C5600A415996F9651971198119911D8B436EF2A
:101C66000EF038EF0EF03CEF0EF0010EA66F45EFCA
:101C76000EF08EA141EF0EF043EF0EF045EF0EF0A1
:101C860038EF0EF0A651D8B44BEF0EF04DEF0EF034
:101C960071EF0EF0010E8E27000E8F2390239123F5
:101CA60091A158EF0EF05AEF0EF071EF0EF08EC0C4
:101CB60096F08FC097F090C098F091C099F0993542
:101CC600993398339733963396C08EF097C08FF03A
:101CD60098C090F099C091F09F4BA02BA0BF7CEFCD
:101CE6000EF0A05108E19F29D8A07CEF0EF07EEF00
:101CF6000EF089EF0EF0000EA06F9F69000E8E6F3A
:101D0600000E8F6F000E906F000E916FA0BF96EFC2
:101D16000EF0A05106E19F05D8B094EF0EF096EFB5
:101D26000EF0A4EF0EF0000EA06F000E9F6F000ED7
:101D36008E6F000E8F6F000E906F000E916F000E6B
:101D46009E6F9FC0A5F0A5A1ABEF0EF0ADEF0EF014
:101D5600B0EF0EF0908FB1EF0EF0909FD890A531B6
:101D6600916F67EF0DF012000C50D96EDA6ADFCF73
:101D7600F6FF100EF76EF86A0800F550250AD8A48B
:101D8600C7EF0EF0C9EF0EF08AEF0FF00C50D96EC8
:101D9600DA6ADF2A000E4F6E000E4E6E4EC05AF003
:101DA600506851680C50D96EDA6ADF50106E10C058
:101DB600F6FF100EF76EF86A0800F550640AD8B4FC
:101DC600E7EF0EF0E9EF0EF0F8EF0EF010C0F6FFB9
:101DD600100EF76EF86A0800F550690AD8A4F6EFF7
:101DE6000EF0F8EF0EF084EF0FF00D50D96EDA6AB0
:101DF600020EDF26DF5CD96EDA6ADECF11F0DECFA7
:101E060012F00C50D96EDA6A1028DF6E200E156EAD
:101E160012BE10EF0FF013EF0FF0010E14EF0FF0DC
:101E2600000E0F6E1506000E1524D96EDA6A010E25
:101E3600DA2211C001F012C002F0000E046E0A0E82
:101E4600036E01EC15F001C007F002C008F0E2ECE9
:101E560019F00750300FDF6E11C001F012C002F00A
:101E6600000E046E0A0E036E9FEC14F001C011F012
:101E760002C012F011501210D8B444EF0FF046EF22
:101E86000FF04EEF0FF01550D8A44CEF0FF04EEFB9
:101E96000FF015EF0FF01550D8B454EF0FF056EFC2
:101EA6000FF079EF0FF00F50D8B45CEF0FF05EEF44
:101EB6000FF079EF0FF01506000E1524D96EDA6AC9
:101EC600010EDA222D0EDF6E79EF0FF0000E1524CB
:101ED600D96EDA6A010EDA22DF500E6E0E50016EEE
:101EE600026A0BC003F059EC15F0152A200E1518DE
:101EF600D8A480EF0FF082EF0FF069EF0FF09CEFA0
:101F06000FF00C50D96EDA6ADF2A9CEF0FF00C50F6
:101F1600D96EDA6ADFCFF6FF100EF76EF86A0800A0
:101F2600F550016E026A0BC003F059EC15F084EF10
:101F36000FF012000001886F00018851D8B4A6EF97
:101F46000FF0A8EF0FF0CAEF0FF083BFAFEF0FF05F
:101F5600ADEF0FF0CAEF0FF080C084F081C085F0BE
:101F660082C086F083C087F0841F851F861F871F67
:101F7600842B000E85238623872384C08AF085C0A0
:101F86008BF086C08CF087C08DF0D2EF0FF080C04A
:101F96008AF081C08BF082C08CF083C08DF08051B6
:101FA600811182118311D8A4DBEF0FF0DDEF0FF062
:101FB600E7EF0FF0000E806F000E816F000E826F4C
:101FC600000E836F78EF10F0960E896FF1EF0FF029
:101FD600892BD8908D338C338B338A33000E8A1538
:101FE600846F000E8B15856F000E8C15866FFE0EA6
:101FF6008D15876F8451851186118711D8A406EF38
:1020060010F008EF10F0EBEF0FF016EF10F0892B41
:10201600010E8A27000E8B238C238D23D8908D33B7
:102026008C338B338A33000E8A15846F000E8B1522
:10203600856F000E8C15866FFF0E8D15876F845188
:10204600851186118711D8A42BEF10F02DEF10F013
:102056000AEF10F035EF10F08907D8908A378B37E2
:102066008C378D378CBF3AEF10F03CEF10F044EF11
:1020760010F0020E896142EF10F044EF10F02FEFDE
:1020860010F089B149EF10F04BEF10F04CEF10F063
:102096008C9FD890893389C084F0856B866B876B5B
:1020A60084C087F0866B856B846B84518A13855157
:1020B6008B1386518C1387518D138851D8B466EFD4
:1020C60010F068EF10F070EF10F083BF6FEF10F0B4
:1020D6006DEF10F070EF10F08D8F8AC080F08BC01E
:1020E60081F08CC082F08DC083F012000001805117
:1020F600D8B480EF10F082EF10F09AEF10F0805114
:10210600D96EDA6ADF30E832E832070B826F080EE2
:10211600826190EF10F092EF10F09AEF10F0010E3E
:10212600816598EF10F09AEF10F0F5EF10F0000EC1
:10213600876F15EF11F08051D96EDA6ADF30E83219
:10214600E832070B826F010E836F822BADEF10F022
:10215600D8908337822FABEF10F000018351FF0A2E
:10216600846F8051D96EDA6ADF50070B020DF35087
:10217600CE0FD96EDA6ADECF85F0DDCF86F085C068
:10218600D9FF86C0DAFF8451DF160AEF11F08051BD
:10219600D96EDA6ADF30E832E832070B826F010E59
:1021A600836F822BD9EF10F0D8908337822FD7EF29
:1021B60010F000018051D96EDA6ADF50070B020D6C
:1021C600F350CE0FD96EDA6ADECF84F0DDCF85F01C
:1021D60084C0D9FF85C0DAFF8351DF120AEF11F000
:1021E6000AEF11F08151826F836B8351000AD8B4D4
:1021F600FFEF10F0F3EF10F08251000AD8B49EEF13
:1022060010F0010AD8B4CAEF10F0F3EF10F08051C5
:10221600D96EDA6A81B102D0DF9E02D00001DF8E6C
:10222600010E876F8751120000018051D8B41EEF4E
:1022360011F020EF11F038EF11F08051D96EDA6A03
:10224600DF30E832E832070B826F080E82612EEF2C
:1022560011F030EF11F038EF11F0010E816536EF15
:1022660011F038EF11F093EF11F0000E876FB3EF16
:1022760011F08051D96EDA6ADF30E832E832070BA6
:10228600826F010E836F822B4BEF11F0D89083374C
:10229600822F49EF11F000018351FF0A846F8051AC
:1022A600D96EDA6ADF50070B020DF350D80FD96EDC
:1022B600DA6ADECF85F0DDCF86F085C0D9FF86C02D
:1022C600DAFF8451DF16A8EF11F08051D96EDA6A71
:1022D600DF30E832E832070B826F010E836F822B04
:1022E60077EF11F0D8908337822F75EF11F0000148
:1022F6008051D96EDA6ADF50070B020DF350D80F02
:10230600D96EDA6ADECF84F0DDCF85F084C0D9FFDE
:1023160085C0DAFF8351DF12A8EF11F0A8EF11F0A4
:102326008151826F836B8351000AD8B49DEF11F0FF
:1023360091EF11F08251000AD8B43CEF11F0010A76
:10234600D8B468EF11F091EF11F08051D96EDA6AC6
:1023560081B102D0DF9C02D00001DF8C010E876FB5
:10236600875112000150D8B4BBEF11F0BDEF11F048
:10237600D5EF11F00150D96EDA6ADF30E832E83273
:10238600070B036E080E0360CBEF11F0CDEF11F0D3
:10239600D5EF11F0010E0264D3EF11F0D5EF11F075
:1023A6002EEF12F0000E086E4DEF12F00150D96EAE
:1023B600DA6ADF30E832E832070B036E010E046E8C
:1023C600032AE8EF11F0D8900436032EE6EF11F059
:1023D6000450FF0A056E0150D96EDA6ADF50070B0A
:1023E600020DF350CE0FD96EDA6ADECF06F0DDCFDE
:1023F60007F006C0D9FF07C0DAFF0550DF1643EF26
:1024060012F00150D96EDA6ADF30E832E832070B93
:10241600036E010E046E032A13EF12F0D8900436F1
:10242600032E11EF12F00150D96EDA6ADF50070B56
:10243600020DF350CE0FD96EDA6ADECF05F0DDCF8E
:1024460006F005C0D9FF06C0DAFF0450DF1243EFDD
:1024560012F043EF12F00250036E046A0450000AB1
:10246600D8B438EF12F02CEF12F00350000AD8B4AB
:10247600D9EF11F0010AD8B404EF12F02CEF12F0E4
:102486000150D96EDA6A02B002D0DF9E01D0DF8E2B
:10249600010E086E08501200000E0001966F000E25
:1024A600996F9351D8A45AEF12F05CEF12F060EFD7
:1024B60012F0000E976FE1EF12F09329886F3AEC55
:1024C60017F00001966F93C088F03AEC17F0000100
:1024D600966F000E986F78EF12F093519825020FC1
:1024E600886F3AEC17F00001982BE251985DD8A05E
:1024F6007FEF12F081EF12F070EF12F0340E000150
:10250600946FF10EE82EFED7942FFCD700D093C01F
:102516008EF0380E00018F6F96EC16F00D0E00014E
:10252600946FFB0EE82EFED7942FFCD700D093C0F5
:102536008EF0380E00018F6F96EC16F0020E000139
:10254600956F860E946F990EE82EFED7942FFCD7C2
:10255600952FFAD793C08EF0380E00018F6F96EC48
:1025660016F093C08EF0010E00018F6F96EC16F0F8
:1025760093C08EF0020E00018F6F96EC16F093C09A
:102586008EF0060E00018F6F96EC16F093C08EF05B
:102596000C0E00018F6F96EC16F093C08EF0800E35
:1025A60000018F6F96EC16F093C08EF0280E000196
:1025B6008F6F96EC16F0010E0001976F975112007F
:1025C600000182358335896F8951D8A4EDEF12F069
:1025D600EFEF12F0F9EF12F0000E806F000E816F30
:1025E600000E826F000E836F66EF13F080C084F0DA
:1025F60081C085F082C086F083C087F0200E09EF87
:1026060013F0D8908733863385338433E82E04EF6E
:1026160013F08451886F828FFF0E8017FF0E81178B
:10262600FF0E8217000E8317960E895F89BF20EF73
:1026360013F01EEF13F036EF13F08951800A970F4F
:10264600D8B028EF13F02AEF13F02CEF13F0EFEFCA
:1026560012F0D8908333823381338033893F2CEF55
:1026660013F04EEF13F01F0E89653CEF13F03EEFAB
:1026760013F046EF13F0EFEF12F0D8908037813762
:102686008237833789078951D8A44CEF13F04EEF70
:1026960013F040EF13F08851D8B454EF13F056EF0F
:1026A60013F05EEF13F0831F821F811F806D000EF3
:1026B60081238223832380C080F081C081F082C081
:1026C60082F083C083F01200610E016E6EEC1AF088
:1026D600680E356E010E366E0A0E376E61C038F022
:1026E600396A87EC19F01D0E61647CEF13F07EEFFA
:1026F60013F094EF13F0710E096EAAEC18F05B6EEE
:10270600780E096E2EEC18F05B6E760E096E58EC9C
:1027160018F05B6E740E096E58EC18F05B6ED6EF0F
:1027260013F01E0E61609AEF13F09CEF13F0BAEFF0
:1027360013F0140E6164A2EF13F0A4EF13F0BAEFD6
:1027460013F0710E096ED1EC18F05B6E6E0E096E09
:10275600D1EC18F05B6E780E096E58EC18F05B6ED3
:10276600760E096E2EEC18F05B6E8DEF13F0150EDB
:102776006160C0EF13F0C2EF13F0D6EF13F06E0EE8
:10278600096EAAEC18F05B6E780E096E58EC18F01C
:102796005B6E760E096E58EC18F05B6E740E096E61
:1027A6002EEC18F05B6E120000018051D96EDA6AC9
:1027B600060ED926DFA0E2EF13F0E4EF13F03BEFAD
:1027C60014F0AB888051D96EDA6A060ED926DFA2DC
:1027D600EFEF13F0F1EF13F012EF14F09D9AF28E73
:1027E600F28C9D8A8051D96EDA6A0A0ED926DECF1E
:1027F60056F0DDCF57F08051D96EDA6A0C0ED92625
:10280600DECF54F0DDCF55F08051D96EDA6A0E0E68
:10281600D926DECF52F0DDCF53F01FEF14F08051F2
:10282600D96EDA6A060ED926DFB21CEF14F01EEF57
:1028360014F01FEF14F09D9A8051D96EDA6A060ED5
:10284600D926DFA429EF14F02BEF14F02EEF14F0A5
:10285600AC8C3BEF14F08051D96EDA6A060ED9269D
:10286600DFB438EF14F03AEF14F03BEF14F0AC9C01
:1028760012000600FACF3CF0FBCF3DF0E1CF3EF070
:10288600E2CF3FF0D9CF40F0DACF41F0F3CF42F0BC
:10289600F4CF43F0F6CF44F0F7CF45F0F8CF46F04B
:1028A600F5CF47F09DAC5AEF14F05CEF14F065EFEE
:1028B60014F09EAC61EF14F063EF14F065EF14F0C2
:1028C60090EC1AF09DA86AEF14F06CEF14F075EF17
:1028D60014F09EA871EF14F073EF14F075EF14F076
:1028E6008EEC1AF09DAA7AEF14F07CEF14F085EFC7
:1028F60014F09EAA81EF14F083EF14F085EF14F024
:10290600FCEC19F047C0F5FF46C0F8FF45C0F7FFDD
:1029160044C0F6FF43C0F4FF42C0F3FF41C0DAFFF4
:1029260040C0D9FF3FC0E2FF3EC0E1FF3DC0FBFF14
:102936003CC0FAFF7A921100000E066E04BEA8EFA4
:1029460014F0A6EF14F0AEEF14F0036C041ED8B02A
:10295600042A010E066E02BEB5EF14F0B3EF14F0B2
:10296600BBEF14F0016C021ED8B0022A010E061A43
:10297600000E086E000E076E03500410D8B4C6EFA2
:1029860014F0C8EF14F0F0EF14F0010E056ED0EF5E
:1029960014F0D89003360436052A04AED5EF14F0A9
:1029A600D7EF14F0CCEF14F0D89007360836035062
:1029B600015C04500258D8A0E3EF14F0E5EF14F0E0
:1029C600EAEF14F00350015E0450025A0780D890D3
:1029D60004320332052ED7EF14F00650D8B4F6EFC2
:1029E60014F0F8EF14F0FCEF14F0076C081ED8B0E2
:1029F600082A07C001F008C002F01200000E066E99
:102A060002BE0AEF15F008EF15F010EF15F0016C95
:102A1600021ED8B0022A010E066E04BE17EF15F08C
:102A260015EF15F01BEF15F0036C041ED8B0042A41
:102A360003500410D8B422EF15F024EF15F048EF38
:102A460015F0010E056E2CEF15F0D89003360436FE
:102A5600052A04AE31EF15F033EF15F028EF15F027
:102A66000350015C04500258D8A03CEF15F03EEF2D
:102A760015F042EF15F00350015E0450025AD8904B
:102A860004320332052E33EF15F00650D8B44EEF5C
:102A960015F050EF15F054EF15F0016C021ED8B08A
:102AA600022A01C001F002C002F012000350D8B49D
:102AB6005FEF15F061EF15F069EF15F00350D8A43C
:102AC60067EF15F069EF15F06EEF15F0015092EC17
:102AD6001AF0ADEF15F00350D96EDA6A0A0ED92650
:102AE600DE50DE10D8B47AEF15F07CEF15F095EFD6
:102AF60015F00350D96EDA6A0A0ED9260350E16E34
:102B0600E26A030EE126DE50E65CE650800A086EB5
:102B1600DE50800A0858D8B093EF15F095EF15F0FF
:102B2600ADEF15F00350D96EDA6A030ED926DF50E1
:102B3600046E0350D96EDA6ADF500424D96EDA6A5D
:102B460001C0DFFF0350D96EDA6A030ED926DE2AEA
:102B5600000EDD22120000018051D96EDA6A040EE1
:102B6600D926DFA0B9EF15F0BBEF15F000EF16F090
:102B7600AC8A8051D96EDA6A040ED926DFA2C6EF76
:102B860015F0C8EF15F0D7EF15F09D98F28EF28C80
:102B96009D888051D96EDA6A080ED926DECFF3F009
:102BA600DDCFF4F0E4EF15F08051D96EDA6A040E49
:102BB600D926DFB2E1EF15F0E3EF15F0E4EF15F0FB
:102BC6009D988051D96EDA6A040ED926DFA4EEEFFD
:102BD60015F0F0EF15F0F3EF15F0AC8C00EF16F0F2
:102BE6008051D96EDA6A040ED926DFB4FDEF15F0EE
:102BF600FFEF15F000EF16F0AC9C120020EE48F047
:102C060010EE2EF0050EDBCFE3FFE806FCE2000E29
:102C1600346E2D50D8A412EF16F014EF16F016EFFE
:102C260016F04BEF16F02DC001F0000E036E200ECD
:102C3600026E000E056E050E046E14EC1AF02D5091
:102C4600D96EDA6A050ED926DF6A2E0E1A6E010EC5
:102C56001B6E2BC01CF02CC01DF0C8EC19F03FEF0A
:102C660016F034502E0FD96EDA6A2D503424E16EE8
:102C7600E26ADFCFE7FF342A34502E0FD96EDA6AC4
:102C8600DF50D8A449EF16F04BEF16F034EF16F0EC
:102C96001200000E196E000E1A6E160677EF16F069
:102CA60014C00FF01650800F106E6DEC17F094EFF5
:102CB60016F014C00FF01650C00F106E6DEC17F022
:102CC60094EF16F014C00FF01650940F106E6DECC2
:102CD60017F094EF16F014C00FF01650D40F106EC4
:102CE6006DEC17F094EF16F01550176E186A185021
:102CF600000AD8B481EF16F094EF16F01750010AC7
:102D0600D8B453EF16F0030AD8B45CEF16F0010AF4
:102D1600D8B465EF16F0070AD8B46EEF16F094EF44
:102D260016F0000E1200000E0001906F000E916F5B
:102D36008E51D8A4A1EF16F0A3EF16F0A7EF16F068
:102D4600000E926FCDEF16F08EC080F0000E816FF0
:102D560079EC10F08EC088F000018F390F0B896F67
:102D660004EC18F00001916F8EC088F044EC1AF064
:102D76000001916F8EC088F08FC089F004EC18F0C6
:102D86000001916F8EC088F044EC1AF00001916F3B
:102D9600010E926F92511200000E1F6E000E206EF1
:102DA6001B50D8B4D9EF16F0DBEF16F0F3EF16F0A0
:102DB6001E50D8B4E1EF16F0E3EF16F0F3EF16F07D
:102DC600050E1C60E9EF16F0EBEF16F0F3EF16F0C8
:102DD600280E1D64F1EF16F0F3EF16F0F5EF16F07E
:102DE60005EF17F01BC014F01CC015F01DC016F03F
:102DF6004CEC16F0206E1BC014F01EC015F0D3EC80
:102E060017F0206E1200580EF66E340EF76E000E96
:102E1600F86E00EEC4F010EE2FF00900F5CFEEFFCD
:102E2600E550E150FAE1FA0EF66E340EF76E000E3A
:102E3600F86E00EE64F010EE16F00900F5CFEEFF26
:102E4600E550E150FAE101EE00F0200EEE6AE806E8
:102E5600FDE10001F46BF36B00EE48F01C0EEE6A28
:102E6600E806FDE17A907A92000188EF1AF0000EEA
:102E760000018A6F8851D8B443EF17F045EF17F079
:102E860055EF17F08851D96EDA6ADF30E832E8324A
:102E9600070B896F070E896553EF17F055EF17F08B
:102EA60059EF17F0000E8B6F6BEF17F088C080F0AC
:102EB600000E816F17EC11F000018A6F88C080F058
:102EC600000E816F79EC10F000018A6F010E8B6F96
:102ED6008B511200000E116E000E126E0F50D8A408
:102EE60077EF17F079EF17F07DEF17F0000E136EFE
:102EF6009EEF17F00FC001F0000E026EB5EC11F058
:102F06000FC009F010380F0B0A6E82EC18F0126E23
:102F16000FC009F05AEC1AF0126E0FC009F010C07B
:102F26000AF082EC18F0126E0FC009F05AEC1AF093
:102F3600126E010E136E13501200000E116E000E6B
:102F4600126E0F50D8A4AAEF17F0ACEF17F0B0EF3F
:102F560017F0000E136ED1EF17F00FC001F0010E3F
:102F6600026EB5EC11F00FC009F010380F0B0A6EA7
:102F760082EC18F0126E0FC009F05AEC1AF0126EBD
:102F86000FC009F010C00AF082EC18F0126E0FC0E4
:102F960009F05AEC1AF0126E010E136E135012005D
:102FA600000E166E000E176E1450D8B4DDEF17F033
:102FB600DFEF17F0E7EF17F01550D8A4E5EF17F09D
:102FC600E7EF17F0F5EF17F0000E186E02EF18F0A6
:102FD60014C00FF01550D96EDA6ADF50106EA0ECEF
:102FE60017F0152A1550D96EDA6ADF50D8A4FEEF0D
:102FF60017F000EF18F0EBEF17F0010E186E1850EF
:103006001200000E00018C6F000E8D6F23EF18F07A
:1030160088518D25020F806F8DC08AF089C08BF094
:103026008A2B18EF18F0D8908B338A2F16EF18F0EA
:1030360000018B51010B816F79EC10F000018D2B93
:10304600E2518D5DD8A02AEF18F02CEF18F00BEFA7
:1030560018F08C511200000E0A6E0950D8A436EFF3
:1030660018F038EF18F03CEF18F0000E0B6E56EF24
:1030760018F009C001F0010E026EB5EC11F009500E
:10308600D96EDA6A010ED9260950E16EE26AE7BE08
:103096004FEF18F052EF18F0010E53EF18F0000E34
:1030A600DF6E010E0B6E0B501200000E0A6E0950F9
:1030B600D8A460EF18F062EF18F066EF18F0000E73
:1030C6000B6E80EF18F009C001F0000E026EB5EC31
:1030D60011F00950D96EDA6A010ED9260950E16E4F
:1030E600E26AE7BE79EF18F07CEF18F0010E7DEF8B
:1030F60018F0000EDF6E010E0B6E0B501200000E64
:103106000D6E000E0E6E9EEF18F009500E24020F83
:10311600016E0EC00BF00AC00CF00B2A95EF18F0EA
:10312600D8900C320B2E93EF18F00C50010B026E58
:10313600B5EC11F00E2A0001E2510E5CD8A0A6EF04
:1031460018F0A8EF18F088EF18F00D501200000ED6
:103156000A6E0950D8A4B2EF18F0B4EF18F0B8EF21
:1031660018F0000E0B6ECFEF18F009C001F0010E3B
:10317600026EB5EC11F00A6E0928016E000E026EA1
:10318600B5EC11F00A6E0950D96EDA6A020ED9262C
:10319600010EDF6E010E0B6E0B501200000E0A6E52
:1031A6000950D8A4D9EF18F0DBEF18F0DFEF18F0CC
:1031B600000E0B6EF5EF18F009C001F0000E026E5E
:1031C600B5EC11F00A6E0928016E000E026EB5EC20
:1031D60011F00A6E0950D96EDA6A020ED926DF6A34
:1031E600010E0B6E0B501200000E00018D6F8C51FC
:1031F600D8A400EF19F002EF19F004EF19F01BEF55
:1032060019F08CC088F03AEC17F000018C51D96E99
:10321600DA6A010ED9268C51E16EE26AE7BE16EF34
:1032260019F019EF19F0010E1AEF19F0000EDF6E02
:103236001200000E00018D6F8C51D8A425EF19F0F5
:1032460027EF19F02BEF19F0000E8E6F3FEF19F0F4
:103256008CC088F03AEC17F000018D6F8C29886FCE
:103266003AEC17F000018D6F8C51D96EDA6A020EB6
:10327600D926DF6A010E8E6F8E511200E30E000111
:10328600C26F65EC19F0680E0001936F4FEC12F0F7
:10329600710E00018C6F1CEC19F06E0E00018C6F24
:1032A6001CEC19F0740E00018C6FF7EC18F0760E1A
:1032B60000018C6FF7EC18F0780E00018C6FF7ECBC
:1032C60018F012000001C251D8A46CEF19F06EEF8D
:1032D60019F072EF19F0000EC36F85EF19F0AB9E6F
:1032E600948E948CC2C0B7F003EC08F0C2C080F094
:1032F600AEEC15F0C2C080F0D7EC13F0AB8E010E29
:103306000001C36FC3511200000E3A6E000E3B6EF1
:103316003550D8A491EF19F093EF19F095EF19F005
:10332600A7EF19F038C02BF039C02CF0620E2D6EC5
:1033360001EC16F035C01BF036C01CF037C01DF08E
:10334600620E1E6ECFEC16F0120017C019F0B4EF25
:1033560019F016C00BF0190E0C6E18C00DF0B7EC74
:103366000EF019C0F6FF100EF76EF86A0800F55059
:103376000009D8A4C1EF19F0C3EF19F0ACEF19F0AA
:10338600000E176E000E166E12001C0E1E6E1AC070
:103396001FF0000E236E000E226E000E2A6E000E27
:1033A600296E1F0E166E1BC017F01E0E186EA8ECA7
:1033B60019F01A502224D96EDA6ADF6A120008BEA2
:1033C600E7EF19F0E9EF19F0EFEF19F007C007F092
:1033D60008C008F0FBEF19F007C009F008C00AF0B2
:1033E600091E0A1E094A0A2A09C007F00AC008F07F
:1033F600120056505710D8B403EF1AF005EF1AF022
:1034060013EF1AF002D811EF1AF00500FA6E5650B3
:10341600FD6E5750FE6EFF6AFA50120013EF1AF057
:10342600120001C006F01EEF1AF00650D96EDA6AD5
:1034360002C0DFFF062A0406D8A00506042806E116
:103446000528D8A429EF1AF02BEF1AF018EF1AF076
:103456001200800F810F820F830F840F890F8A0F4E
:103466008B0F8C0F8D0F920F930F940F950F960F56
:103476000480250000000003000000CE26000000A6
:013486000045
:10348800000E0001896F8829806F010E816F79EC29
:1034980010F0030EE82EFED7000000018829806F87
:1034A800000E816F79EC10F0000E1200000E0A6E0B
:1034B8000928016E010E026EB5EC11F0030EE82E1C
:1034C800FED700000928016E000E026EB5EC11F05F
:1034D800000E12009EAA73EF1AF075EF1AF07CEF37
:1034E8001AF00150D96EDA6AAECFDFFF7CEF1AF01E
:1034F800120001010101222A020A121A131B0003F9
:103508000B0023002B00330041EC19F08AEF1AF06E
:0E35180007EF00F09D9812009E9C120012001A
:020000040030CA
:0E000000FF02091EFF8181FF0FC00FE00F40BD
:00000001FF
