:0400000007EF00F016
:0A0008007E82BEED0EF0ECEF17F063
:0510000000256900005D
:10100600000E0001BB6F000EBC6F000EBD6F000E20
:10101600BE6F46EF0AF0AC98AC94B896B7C0D9FF4D
:10102600B8C0DAFFDECFB9F0DDCFBAF0B9C080F0D4
:10103600BAC081F0826B836B000E48EC11F080C061
:1010460092F081C093F082C094F083C095F0000EB8
:1010560000018E6F240E8F6FF40E906F4A0E916F03
:10106600F0EC0CF08EC0BFF08FC0C0F090C0C1F0A5
:1010760091C0C2F0000E0001926F000E936F800EB9
:10108600946F420E956FBFC08EF0C0C08FF0C1C086
:1010960090F0C2C091F0F0EC0CF08EC0A7F08FC0BB
:1010A600A8F090C0A9F091C0AAF0000E0001AB6FA5
:1010B600000EAC6F800EAD6FBF0EAE6F8FEC0AF0F8
:1010C600A7C0BBF0A8C0BCF0A9C0BDF0AAC0BEF0C6
:1010D60071EF0AF0AC98AC84B896B7C0D9FFB8C027
:1010E600DAFFDECFB9F0DDCFBAF0B9C080F0BAC012
:1010F60081F0826B836B000E48EC11F080C092F099
:1011060081C093F082C094F083C095F0000E000178
:101116008E6F240E8F6FF40E906F4A0E916FF0EC67
:101126000CF08EC0BFF08FC0C0F090C0C1F091C06F
:10113600C2F0000E0001926F000E936F800E946F46
:10114600410E956FBFC08EF0C0C08FF0C1C090F049
:10115600C2C091F0F0EC0CF08EC0A7F08FC0A8F0E2
:1011660090C0A9F091C0AAF0000E0001AB6F000E6E
:10117600AC6F800EAD6FBF0EAE6F8FEC0AF0A7C0DE
:10118600BBF0A8C0BCF0A9C0BDF0AAC0BEF071EF0C
:101196000AF0AC98AC94B886B7C0D9FFB8C0DAFFED
:1011A600DECFB9F0DDCFBAF0B9C080F0BAC081F0B9
:1011B600826B836B000E48EC11F080C092F081C008
:1011C60093F082C094F083C095F0000E00018E6FFC
:1011D600240E8F6FF40E906F4A0E916FF0EC0CF0A8
:1011E6008EC0BFF08FC0C0F090C0C1F091C0C2F0F9
:1011F600000E0001926F000E936F800E946F410EE9
:10120600956FBFC08EF0C0C08FF0C1C090F0C2C055
:1012160091F0F0EC0CF08EC0A7F08FC0A8F090C053
:10122600A9F091C0AAF0000E0001AB6F000EAC6FE2
:10123600800EAD6FBF0EAE6F8FEC0AF0A7C0BBF08D
:10124600A8C0BCF0A9C0BDF0AAC0BEF071EF0AF0FC
:10125600AC98AC84B886B7C0D9FFB8C0DAFFDECF89
:10126600B9F0DDCFBAF0B9C080F0BAC081F0826BB8
:10127600836B000E48EC11F080C092F081C093F0B1
:1012860082C094F083C095F0000E00018E6F240E8C
:101296008F6FF40E906F4A0E916FF0EC0CF08EC0CB
:1012A600BFF08FC0C0F090C0C1F091C0C2F0000E78
:1012B6000001926F000E936F800E946F400E956F33
:1012C600BFC08EF0C0C08FF0C1C090F0C2C091F018
:1012D600F0EC0CF08EC0A7F08FC0A8F090C0A9F07B
:1012E60091C0AAF0000E0001AB6F000EAC6F800E2D
:1012F600AD6FBF0EAE6F8FEC0AF0A7C0BBF0A8C0F3
:10130600BCF0A9C0BDF0AAC0BEF071EF0AF0AC886F
:10131600B896B7C0D9FFB8C0DAFFDECFB9F0DDCFD7
:10132600BAF0B9C080F0BAC081F0826B836B000E50
:1013360048EC11F080C092F081C093F082C094F026
:1013460083C095F0000E00018E6F240E8F6FF40E91
:10135600906F4A0E916FF0EC0CF08EC0BFF08FC00C
:10136600C0F090C0C1F091C0C2F0000E0001926FB3
:10137600000E936F800E946F400E956FBFC08EF077
:10138600C0C08FF0C1C090F0C2C091F0F0EC0CF07C
:101396008EC0A7F08FC0A8F090C0A9F091C0AAF0A7
:1013A600000E0001AB6F000EAC6F800EAD6FBF0E6E
:1013B600AE6F8FEC0AF0A7C0BBF0A8C0BCF0A9C006
:1013C600BDF0AAC0BEF071EF0AF0AC88B886B7C00F
:1013D600D9FFB8C0DAFFDECFB9F0DDCFBAF0B9C0B9
:1013E60080F0BAC081F0826B836B000E48EC11F07E
:1013F60080C092F081C093F082C094F083C095F0D3
:10140600000E00018E6F240E8F6FF40E906F4A0E41
:10141600916FF0EC0CF08EC0BFF08FC0C0F090C0A2
:10142600C1F091C0C2F0000E0001926F000E936FE2
:10143600800E946F400E956FBFC08EF0C0C08FF0C7
:10144600C1C090F0C2C091F0F0EC0CF08EC0A7F0D5
:101456008FC0A8F090C0A9F091C0AAF0000E0001BC
:10146600AB6F000EAC6F800EAD6FBF0EAE6F8FEC24
:101476000AF0A7C0BBF0A8C0BCF0A9C0BDF0AAC0C6
:10148600BEF071EF0AF020EE02F0B751D926B8513E
:10149600DA22DF50B96FBA6BBA51000AD8B456EFE8
:1014A6000AF071EF0AF0B951000AD8B40EEF08F04D
:1014B600010AD8B46DEF08F0030AD8B4CCEF08F0EF
:1014C600010AD8B42BEF09F0070AD8B48AEF09F05D
:1014D600010AD8B4E8EF09F071EF0AF0BBC080F05A
:1014E600BCC081F0BDC082F0BEC083F08EEC14F0AB
:1014F60000018051AF6EBBC080F0BCC081F0BDC0A2
:1015060082F0BEC083F08EEC14F0000181C080F042
:10151600816B8051B06E12000001AA51800BB36F2F
:10152600AA51AA25B56FA9AF9BEF0AF09DEF0AF065
:101536009EEF0AF0B581B551D8B4A4EF0AF0A6EF34
:101546000AF0BBEF0AF0B529D8A4ACEF0AF0AEEF6B
:101556000AF0B6EF0AF0000EA76F000EA86F000E95
:10156600A96F000EAA6FA98F000EAA6FC3EF0AF02B
:10157600000EA76F000EA86F000EA96F000EAA6FCF
:10158600AE51800BB46FB351B419D8B4CDEF0AF095
:10159600CFEF0AF0D0EF0AF0B38DAE51AE25B46F9F
:1015A600ADAFD8EF0AF0DAEF0AF0DBEF0AF0B4815C
:1015B600B451D8B4E1EF0AF0E3EF0AF0F8EF0AF01D
:1015C600B429D8A4E9EF0AF0EBEF0AF0F3EF0AF03A
:1015D600000EAB6F000EAC6F000EAD6F000EAE6F5F
:1015E600AD8F000EAE6F00EF0BF0000EAB6F000E6E
:1015F600AC6F000EAD6F000EAE6FB551B45DD8B0D6
:1016060007EF0BF009EF0BF030EF0BF0B3AD0EEF79
:101616000BF010EF0BF012EF0BF0800EB31BB5C002
:10162600B6F0B4C0B5F0B6C0B4F0A7C0B6F0ABC063
:10163600A7F0B6C0ABF0A8C0B6F0ACC0A8F0B6C074
:10164600ACF0A9C0B6F0ADC0A9F0B6C0ADF0AAC066
:10165600B6F0AEC0AAF0B6C0AEF0000EB66FB55189
:10166600B4C0AFF0B06BAF5F000EB05BB0BF45EF7C
:101676000BF0B05109E11A0EAF5DD8A045EF0BF0A3
:1016860047EF0BF07EEF0BF0A751A811A911AA1195
:10169600D8A450EF0BF053EF0BF0010E54EF0BF004
:1016A600000EB66F000EA76F000EA86F000EA96F92
:1016B600000EAA6FB4C0B5F087EF0BF0B6A166EFC7
:1016C6000BF068EF0BF06EEF0BF0D890B631010916
:1016D600B66F70EF0BF0D890B633A7A175EF0BF08D
:1016E60077EF0BF078EF0BF0B68FAA35AA33A93354
:1016F600A833A733B52BB451B55DD8A085EF0BF051
:1017060087EF0BF061EF0BF0B3BD8CEF0BF08EEFB4
:101716000BF0CEEF0BF0B551D8A494EF0BF096EF8B
:101726000BF0A0EF0BF0000EA76F000EA86F000ED7
:10173600A96F000EAA6FEFEF0CF0AB51A727AC51C3
:10174600A823AD51A923AE51AA23AAA1ADEF0BF050
:10175600AFEF0BF05BEF0CF0B6A1B4EF0BF0B6EF0A
:101766000BF0BCEF0BF0D890B6310109B66FBEEFA7
:101776000BF0D890B633A7A1C3EF0BF0C5EF0BF073
:10178600C6EF0BF0B68FAA35AA33A933A833A73311
:10179600B52B5BEF0CF0AB51A75DAC51A859AD5121
:1017A600A959AA51800AAF6FAE51800AAF59D8B075
:1017B600DFEF0BF0E1EF0BF00CEF0CF0A751AB5D98
:1017C600AF6FA851AC59B06FA951AD59B16FAA51BD
:1017D600AE59B26FFF0EAF25A76FFF0EB021A86FEF
:1017E600FF0EB121A96FFF0EB221AA6F800EB31BA7
:1017F600B66DB651D8A402EF0CF004EF0CF014EF5E
:101806000CF0010EA727000EA823A923AA2314EF84
:101816000CF0AB51A75FAC51A85BAD51A95BAE51C3
:10182600AA5BA751A811A911AA11D8A41DEF0CF003
:101836001FEF0CF054EF0CF0B651D8A425EF0CF0C6
:1018460027EF0CF054EF0CF0000EA76F000EA86FF8
:10185600000EA96F000EAA6FEFEF0CF0D890A73715
:10186600A837A937AA37B6AF3BEF0CF03DEF0CF01F
:101876003EEF0CF0A781B6A143EF0CF045EF0CF05C
:1018860049EF0CF0D880B6374BEF0CF0D890B6374E
:10189600B551D8B451EF0CF053EF0CF054EF0CF0F7
:1018A600B507A9AF59EF0CF05BEF0CF031EF0CF078
:1018B600000EB46FB6AF62EF0CF064EF0CF07CEF85
:1018C6000CF0B6C0AFF07F0EAF17D8B46DEF0CF0CA
:1018D6006FEF0CF073EF0CF0010EB46F7CEF0CF0B1
:1018E600A7A178EF0CF07AEF0CF07CEF0CF06FEF1D
:1018F6000CF0B451D8B482EF0CF084EF0CF0AFEFDB
:101906000CF0010EA727000EA823A923AA23AAA13B
:101916008FEF0CF091EF0CF0AFEF0CF0A7C0AFF02B
:10192600A8C0B0F0A9C0B1F0AAC0B2F0B235B233C7
:10193600B133B033AF33AFC0A7F0B0C0A8F0B1C079
:10194600A9F0B2C0AAF0B529D8B4ACEF0CF0AEEF4E
:101956000CF0AFEF0CF0B52BB529D8B4B5EF0CF001
:10196600B7EF0CF0BFEF0CF0B551D8A4BDEF0CF0FB
:10197600BFEF0CF0D1EF0CF0000EA76F000EA86FB2
:10198600000EA96F000EAA6FB551D8A4CDEF0CF0CA
:10199600CFEF0CF0D1EF0CF0000EB36FB5A1D6EF80
:1019A6000CF0D8EF0CF0DBEF0CF0A98FDCEF0CF0AD
:1019B600A99FD890B531AA6FB3AFE4EF0CF0E6EF6C
:1019C6000CF0E7EF0CF0AA8FA7C0A7F0A8C0A8F00C
:1019D600A9C0A9F0AAC0AAF0120000019151800B7B
:1019E6009E6F91519125A56F90AFFCEF0CF0FEEF25
:1019F6000CF0FFEF0CF0A581A551D8B405EF0DF062
:101A060007EF0DF01CEF0DF0A529D8A40DEF0DF092
:101A16000FEF0DF017EF0DF0000E8E6F000E8F6FAB
:101A2600000E906F000E916F908F000E916F24EF55
:101A36000DF0000E8E6F000E8F6F000E906F000E71
:101A4600916F9551800B9E1B95519525A66F94AF6E
:101A56002FEF0DF031EF0DF032EF0DF0A681A6510C
:101A6600D8B438EF0DF03AEF0DF04FEF0DF0A62990
:101A7600D8A440EF0DF042EF0DF04AEF0DF0000E46
:101A8600926F000E936F000E946F000E956F948FF9
:101A9600000E956F57EF0DF0000E926F000E936FCC
:101AA600000E946F000E956F92519311941195113B
:101AB600D8A460EF0DF062EF0DF07AEF0DF0000E96
:101AC6008E6F000E8F6F000E906F000E916F800E5E
:101AD60090137F0E91139E5191138EC08EF08FC07E
:101AE6008FF090C090F091C091F0BDEF0EF0A5512F
:101AF600D8A480EF0DF082EF0DF08CEF0DF0000E04
:101B06008E6F000E8F6F000E906F000E916FBDEFFF
:101B16000EF0A651A5C096F0976B965F000E975BE8
:101B26007F0E96259F6F000E9721A06F8EC09AF0AC
:101B36008FC09BF090C09CF091C09DF0000E8E6F00
:101B4600000E8F6F000E906F000E916F000EA16F4A
:101B5600000EA26F000EA36F000EA46F000EA66FFC
:101B6600EDEF0DF0A651D8B4BBEF0DF0BDEF0DF0C3
:101B7600D4EF0DF0D8909A379B379C379D37D89085
:101B86008E378F3790379137A4AFCCEF0DF0CEEF6D
:101B96000DF0CFEF0DF08E81D890A137A237A33785
:101BA600A43792519A5D93519B5994519C599551E2
:101BB6009D59D8A0E1EF0DF0E3EF0DF0ECEF0DF03D
:101BC600A48D92519A5F93519B5B94519C5B955166
:101BD6009D5BA62B190EA665F3EF0DF0F5EF0DF044
:101BE600B5EF0DF09A519B119C119D11D8B4FEEFE3
:101BF6000DF000EF0EF018EF0EF0A18118EF0EF0C9
:101C0600D8908E378F3790379137A4AF0DEF0EF0FF
:101C16000FEF0EF010EF0EF08E81D890A137A2379D
:101C2600A337A4379F07D8A0A00790AF1DEF0EF0EB
:101C36001FEF0EF003EF0EF0000EA66FA4AF26EF17
:101C46000EF028EF0EF04CEF0EF0FF0EA115966F7A
:101C5600FF0EA215976FFF0EA315986F7F0EA415A2
:101C6600996F9651971198119911D8B43DEF0EF0CE
:101C76003FEF0EF043EF0EF0010EA66F4CEF0EF0A5
:101C86008EA148EF0EF04AEF0EF04CEF0EF03FEF4C
:101C96000EF0A651D8B452EF0EF054EF0EF078EFD6
:101CA6000EF0010E8E27000E8F239023912391A113
:101CB6005FEF0EF061EF0EF078EF0EF08EC096F04B
:101CC6008FC097F090C098F091C099F099359933EC
:101CD60098339733963396C08EF097C08FF098C09E
:101CE60090F099C091F09F4BA02BA0BF83EF0EF010
:101CF600A05108E19F29D8A083EF0EF085EF0EF0E2
:101D060090EF0EF0000EA06F9F69000E8E6F000E12
:101D16008F6F000E906F000E916FA0BF9DEF0EF0BB
:101D2600A05106E19F05D8B09BEF0EF09DEF0EF097
:101D3600ABEF0EF0000EA06F000E9F6F000E8E6FC1
:101D4600000E8F6F000E906F000E916F000E9E6F4B
:101D56009FC0A5F0A5A1B2EF0EF0B4EF0EF0B7EF5D
:101D66000EF0908FB8EF0EF0909FD890A531916F3E
:101D76006EEF0DF012000600FACF3CF0FBCF3DF0FF
:101D8600E1CF3EF0E2CF3FF0D9CF40F0DACF41F0DD
:101D9600F3CF42F0F4CF43F0F6CF44F0F7CF45F05F
:101DA600F8CF46F0F5CF47F0F2A8DCEF0EF0DEEF05
:101DB6000EF0E7EF0EF0F2A2E3EF0EF0E5EF0EF015
:101DC600E7EF0EF040EC1CF0F0A6ECEF0EF0EEEFB5
:101DD6000EF0F7EF0EF0F0A0F3EF0EF0F5EF0EF0C9
:101DE600F7EF0EF03EEC1CF0F0A8FCEF0EF0FEEF65
:101DF6000EF007EF0FF0F0A203EF0FF005EF0FF074
:101E060007EF0FF03CEC1CF0F2A60CEF0FF00EEF14
:101E16000FF029EF0FF0F2A013EF0FF015EF0FF010
:101E260029EF0FF081A81AEF0FF01CEF0FF029EF42
:101E36000FF07704D8A422EF0FF024EF0FF029EF6C
:101E46000FF0000E776E000E24EC1CF0F2A62EEFBB
:101E56000FF030EF0FF04BEF0FF0F2A035EF0FF071
:101E660037EF0FF04BEF0FF081B83CEF0FF03EEF7E
:101E76000FF04BEF0FF07750D8A444EF0FF046EF7A
:101E86000FF04BEF0FF0010E776E010E24EC1CF0F5
:101E9600F2A650EF0FF052EF0FF06DEF0FF0F2A039
:101EA60057EF0FF059EF0FF06DEF0FF081AA5EEFCD
:101EB6000FF060EF0FF06DEF0FF07604D8A466EF29
:101EC6000FF068EF0FF06DEF0FF0000E766E000E5C
:101ED60017EC1CF0F2A672EF0FF074EF0FF08FEF15
:101EE6000FF0F2A079EF0FF07BEF0FF08FEF0FF00E
:101EF60081BA80EF0FF082EF0FF08FEF0FF0765080
:101F0600D8A488EF0FF08AEF0FF08FEF0FF0010ED5
:101F1600766E010E17EC1CF0F2A694EF0FF096EF1A
:101F26000FF0B1EF0FF0F2A09BEF0FF09DEF0FF067
:101F3600B1EF0FF081ACA2EF0FF0A4EF0FF0B1EF0D
:101F46000FF07504D8A4AAEF0FF0ACEF0FF0B1EFC5
:101F56000FF0000E756E000E0AEC1CF0F2A6B6EF3E
:101F66000FF0B8EF0FF0D3EF0FF0F2A0BDEF0FF0C8
:101F7600BFEF0FF0D3EF0FF081BCC4EF0FF0C6EF49
:101F86000FF0D3EF0FF07550D8A4CCEF0FF0CEEFD3
:101F96000FF0D3EF0FF0010E756E010E0AEC1CF078
:101FA600F2A6D8EF0FF0DAEF0FF0F5EF0FF0F2A090
:101FB600DFEF0FF0E1EF0FF0F5EF0FF081AEE6EF98
:101FC6000FF0E8EF0FF0F5EF0FF07404D8A4EEEF82
:101FD6000FF0F0EF0FF0F5EF0FF0000E746E000E3D
:101FE600FDEC1BF0F2A6FAEF0FF0FCEF0FF017EF87
:101FF60010F0F2A001EF10F003EF10F017EF10F061
:1020060081BE08EF10F00AEF10F017EF10F07450D1
:10201600D8A410EF10F012EF10F017EF10F0010E29
:10202600746E010EFDEC1BF09DAC1CEF10F01EEF64
:1020360010F027EF10F09EAC23EF10F025EF10F014
:1020460027EF10F044EC1CF09DA82CEF10F02EEFBB
:1020560010F037EF10F09EA833EF10F035EF10F0C8
:1020660037EF10F042EC1CF09DAA3CEF10F03EEF6B
:1020760010F047EF10F09EAA43EF10F045EF10F076
:1020860047EF10F06EEC1BF047C0F5FF46C0F8FFB7
:1020960045C0F7FF44C0F6FF43C0F4FF42C0F3FF5C
:1020A60041C0DAFF40C0D9FF3FC0E2FF3EC0E1FFBA
:1020B6003DC0FBFF3CC0FAFF7E9211000C50D96E6A
:1020C600DA6ADFCFF6FF100EF76EF86A0800F550F1
:1020D600250AD8A471EF10F073EF10F035EF11F068
:1020E6000C50D96EDA6ADF2A000E0001F86F000E76
:1020F600F76FF7C068F0486849680C50D96EDA6A1D
:10210600DF50106E10C0F6FF100EF76EF86A08006A
:10211600F550640AD8B492EF10F094EF10F0A3EFE4
:1021260010F010C0F6FF100EF76EF86A0800F550B2
:10213600690AD8A4A1EF10F0A3EF10F02FEF11F069
:102146000D50D96EDA6A020EDF26DF5CD96EDA6AC6
:10215600DECF11F0DECF12F00C50D96EDA6A1028FD
:10216600DF6E200E156E12BEBBEF10F0BEEF10F044
:10217600010EBFEF10F0000E0F6E1506000E1524AF
:10218600D96EDA6A010EDA2211C001F012C002F02D
:10219600000E046E0A0E036EAAEC16F001C007F0DC
:1021A60002C008F054EC1BF00750300FDF6E11C070
:1021B60001F012C002F0000E046E0A0E036EEFEC80
:1021C60015F001C011F002C012F011501210D8B46F
:1021D600EFEF10F0F1EF10F0F9EF10F01550D8A472
:1021E600F7EF10F0F9EF10F0C0EF10F01550D8B47B
:1021F600FFEF10F001EF11F024EF11F00F50D8B4FB
:1022060007EF11F009EF11F024EF11F01506000E9B
:102216001524D96EDA6A010EDA222D0EDF6E24EF4E
:1022260011F0000E1524D96EDA6A010EDA22DF509B
:102236000E6E0E50016E026A0BC003F002EC17F030
:10224600152A200E1518D8A42BEF11F02DEF11F03A
:1022560014EF11F047EF11F00C50D96EDA6ADF2A4D
:1022660047EF11F00C50D96EDA6ADFCFF6FF100E89
:10227600F76EF86A0800F550016E026A0BC003F0AB
:1022860002EC17F02FEF11F012000001886F000129
:102296008851D8B451EF11F053EF11F075EF11F0EA
:1022A60083BF5AEF11F058EF11F075EF11F080C0AF
:1022B60084F081C085F082C086F083C087F0841FD9
:1022C600851F861F871F842B000E85238623872361
:1022D60084C08AF085C08BF086C08CF087C08DF0F4
:1022E6007DEF11F080C08AF081C08BF082C08CF047
:1022F60083C08DF08051811182118311D8A486EF9D
:1023060011F088EF11F092EF11F0000E806F000EC1
:10231600816F000E826F000E836F23EF12F0960E10
:10232600896F9CEF11F0892BD8908D338C338B33CA
:102336008A33000E8A15846F000E8B15856F000E8A
:102346008C15866FFE0E8D15876F8451851186114B
:102356008711D8A4B1EF11F0B3EF11F096EF11F099
:10236600C1EF11F0892B010E8A27000E8B238C23D7
:102376008D23D8908D338C338B338A33000E8A1598
:10238600846F000E8B15856F000E8C15866FFF0E01
:102396008D15876F8451851186118711D8A4D6EFC4
:1023A60011F0D8EF11F0B5EF11F0E0EF11F0890759
:1023B600D8908A378B378C378D378CBFE5EF11F085
:1023C600E7EF11F0EFEF11F0020E8961EDEF11F07A
:1023D600EFEF11F0DAEF11F089B1F4EF11F0F6EF4B
:1023E60011F0F7EF11F08C9FD890893389C084F0F3
:1023F600856B866B876B84C087F0866B856B846B79
:1024060084518A1385518B1386518C1387518D13F2
:102416008851D8B411EF12F013EF12F01BEF12F03F
:1024260083BF1AEF12F018EF12F01BEF12F08D8F28
:102436008AC080F08BC081F08CC082F08DC083F0A2
:10244600120000018051D8B42BEF12F02DEF12F0DC
:1024560045EF12F08051D96EDA6ADF30E832E832A1
:10246600070B826F080E82613BEF12F03DEF12F010
:1024760045EF12F0010E816543EF12F045EF12F0C1
:10248600A0EF12F0000E876FC0EF12F08051D96EE8
:10249600DA6ADF30E832E832070B826F010E836FAB
:1024A600822B58EF12F0D8908337822F56EF12F016
:1024B60000018351FF0A846F8051D96EDA6ADF50BA
:1024C600070B020DF350D00FD96EDA6ADECF85F016
:1024D600DDCF86F085C0D9FF86C0DAFF8451DF16CE
:1024E600B5EF12F08051D96EDA6ADF30E832E832A1
:1024F600070B826F010E836F822B84EF12F0D89048
:102506008337822F82EF12F000018051D96EDA6A8A
:10251600DF50070B020DF350D00FD96EDA6ADECF0B
:1025260084F0DDCF85F084C0D9FF85C0DAFF835102
:10253600DF12B5EF12F0B5EF12F08151826F836BA7
:102546008351000AD8B4AAEF12F09EEF12F082511E
:10255600000AD8B449EF12F0010AD8B475EF12F0A8
:102566009EEF12F08051D96EDA6A81B102D0DF9EF9
:1025760002D00001DF8E010E876F87511200000125
:102586008051D8B4C9EF12F0CBEF12F0E3EF12F09E
:102596008051D96EDA6ADF30E832E832070B826F93
:1025A600080E8261D9EF12F0DBEF12F0E3EF12F0C2
:1025B600010E8165E1EF12F0E3EF12F03EEF13F04A
:1025C600000E876F5EEF13F08051D96EDA6ADF3046
:1025D600E832E832070B826F010E836F822BF6EF2B
:1025E60012F0D8908337822FF4EF12F00001835156
:1025F600FF0A846F8051D96EDA6ADF50070B020D2D
:10260600F350DA0FD96EDA6ADECF85F0DDCF86F0C9
:1026160085C0D9FF86C0DAFF8451DF1653EF13F069
:102626008051D96EDA6ADF30E832E832070B826F02
:10263600010E836F822B22EF13F0D8908337822FFF
:1026460020EF13F000018051D96EDA6ADF50070BD4
:10265600020DF350DA0FD96EDA6ADECF84F0DDCFE1
:1026660085F084C0D9FF85C0DAFF8351DF1253EFAE
:1026760013F053EF13F08151826F836B8351000A7D
:10268600D8B448EF13F03CEF13F08251000AD8B4E7
:10269600E7EF12F0010AD8B413EF13F03CEF13F092
:1026A6008051D96EDA6A81B102D0DF9C02D0000176
:1026B600DF8C010E876F875112000150D8B466EF88
:1026C60013F068EF13F080EF13F00150D96EDA6A59
:1026D600DF30E832E832070B036E080E036076EF50
:1026E60013F078EF13F080EF13F0010E02647EEF23
:1026F60013F080EF13F0D9EF13F0000E086EF8EF29
:1027060013F00150D96EDA6ADF30E832E832070B8F
:10271600036E010E046E032A93EF13F0D89004366D
:10272600032E91EF13F00450FF0A056E0150D96E87
:10273600DA6ADF50070B020DF350D00FD96EDA6A52
:10274600DECF06F0DDCF07F006C0D9FF07C0DAFFFF
:102756000550DF16EEEF13F00150D96EDA6ADF305E
:10276600E832E832070B036E010E046E032ABEEF51
:1027760013F0D8900436032EBCEF13F00150D96E37
:10278600DA6ADF50070B020DF350D00FD96EDA6A02
:10279600DECF05F0DDCF06F005C0D9FF06C0DAFFB3
:1027A6000450DF12EEEF13F0EEEF13F00250036E5B
:1027B600046A0450000AD8B4E3EF13F0D7EF13F01D
:1027C6000350000AD8B484EF13F0010AD8B4AFEF6F
:1027D60013F0D7EF13F00150D96EDA6A02B002D0C7
:1027E600DF9E01D0DF8E010E086E08501200000E2B
:1027F6000001966F000E996F9351D8A405EF14F05F
:1028060007EF14F00BEF14F0000E976F8CEF14F037
:102816009329886FA3EC18F00001966F93C088F097
:10282600A3EC18F00001966F000E986F23EF14F0DA
:1028360093519825020F886FA3EC18F00001982B8E
:10284600E451985DD8A02AEF14F02CEF14F01BEF9A
:1028560014F0340E0001946FF10EE82EFED7942F7B
:10286600FCD700D093C08EF0380E00018F6F33EC8A
:1028760018F00D0E0001946FFB0EE82EFED7942F74
:10288600FCD700D093C08EF0380E00018F6F33EC6A
:1028960018F0020E0001956F860E946F990EE82EC1
:1028A600FED7942FFCD7952FFAD793C08EF0380E0B
:1028B60000018F6F33EC18F093C08EF0010E00010B
:1028C6008F6F33EC18F093C08EF0020E00018F6FFD
:1028D60033EC18F093C08EF0060E00018F6F33ECC8
:1028E60018F093C08EF00C0E00018F6F33EC18F0C9
:1028F60093C08EF0800E00018F6F33EC18F093C0FA
:102906008EF0280E00018F6F33EC18F0010E0001D7
:10291600976F97511200000182358335896F89516F
:10292600D8A498EF14F09AEF14F0A4EF14F0000E68
:10293600806F000E816F000E826F000E836F11EFA5
:1029460015F080C084F081C085F082C086F083C017
:1029560087F0200EB4EF14F0D89087338633853392
:102966008433E82EAFEF14F08451886F828FFF0E08
:102976008017FF0E8117FF0E8217000E8317960E23
:10298600895F89BFCBEF14F0C9EF14F0E1EF14F0C3
:102996008951800A970FD8B0D3EF14F0D5EF14F011
:1029A600D7EF14F09AEF14F0D89083338233813343
:1029B6008033893FD7EF14F0F9EF14F01F0E8965C5
:1029C600E7EF14F0E9EF14F0F1EF14F09AEF14F0DA
:1029D600D890803781378237833789078951D8A4C1
:1029E600F7EF14F0F9EF14F0EBEF14F08851D8B4C8
:1029F600FFEF14F001EF15F009EF15F0831F821FAA
:102A0600811F806D000E81238223832380C080F086
:102A160081C081F082C082F083C083F01200710E03
:102A2600016EEEEC1BF0E50E356E010E366E0A0EEB
:102A3600376E71C038F0396AF9EC1AF01D0E716400
:102A460027EF15F029EF15F03FEF15F0EE0E096EA2
:102A56003CEC1AF0696E7C0E096E97EC19F0696E03
:102A66007A0E096EC1EC19F0696E780E096EC1EC2A
:102A760019F0696E81EF15F01E0E716045EF15F0C5
:102A860047EF15F065EF15F0140E71644DEF15F074
:102A96004FEF15F065EF15F0EE0E096E89EC1AF0A2
:102AA600696EEB0E096E89EC1AF0696E7C0E096E82
:102AB600C1EC19F0696E7A0E096E97EC19F0696E21
:102AC60038EF15F0150E71606BEF15F06DEF15F020
:102AD60081EF15F0EB0E096E3CEC1AF0696E7C0E78
:102AE600096EC1EC19F0696E7A0E096EC1EC19F027
:102AF600696E780E096E97EC19F0696E1200000186
:102B060020EE06F08051D9268151DA22DFA08EEF21
:102B160015F090EF15F0EEEF15F0AB8820EE06F00D
:102B26008051D9268151DA22DFA29CEF15F09EEF63
:102B360015F0C2EF15F09D9AF28EF28C9D8A20EE6A
:102B46000AF08051D9268151DA22DECF4EF0DDCF50
:102B56004FF020EE0CF08051D9268151DA22DECFDB
:102B66004CF0DDCF4DF020EE0EF08051D92681518C
:102B7600DA22DECF4AF0DDCF4BF0D0EF15F020EEB3
:102B860006F08051D9268151DA22DFB2CDEF15F059
:102B9600CFEF15F0D0EF15F09D9A20EE06F080519C
:102BA600D9268151DA22DFA4DBEF15F0DDEF15F02F
:102BB600E0EF15F0AC8CEEEF15F020EE06F080514C
:102BC600D9268151DA22DFB4EBEF15F0EDEF15F0DF
:102BD600EEEF15F0AC9C1200000E066E04BEF8EF88
:102BE60015F0F6EF15F0FEEF15F0036C041ED8B0E5
:102BF600042A010E066E02BE05EF16F003EF16F06C
:102C06000BEF16F0016C021ED8B0022A010E061A4E
:102C1600000E086E000E076E03500410D8B416EFAF
:102C260016F018EF16F040EF16F0010E056E20EFC5
:102C360016F0D89003360436052A04AE25EF16F0B2
:102C460027EF16F01CEF16F0D8900736083603501B
:102C5600015C04500258D8A033EF16F035EF16F099
:102C66003AEF16F00350015E0450025A0780D890DE
:102C760004320332052E27EF16F00650D8B446EF7D
:102C860016F048EF16F04CEF16F0076C081ED8B099
:102C9600082A07C001F008C002F01200000120EE69
:102CA60004F08051D9268151DA22DFA05DEF16F0BB
:102CB6005FEF16F0A9EF16F0AC8A20EE04F0805113
:102CC600D9268151DA22DFA26BEF16F06DEF16F0EE
:102CD6007DEF16F09D98F28EF28C9D8820EE08F01E
:102CE6008051D9268151DA22DECFF9F0DDCFFAF014
:102CF6008BEF16F020EE04F08051D9268151DA22AE
:102D0600DFB288EF16F08AEF16F08BEF16F09D987B
:102D160020EE04F08051D9268151DA22DFA496EF05
:102D260016F098EF16F09BEF16F0AC8CA9EF16F0A4
:102D360020EE04F08051D9268151DA22DFB4A6EFC5
:102D460016F0A8EF16F0A9EF16F0AC9C1200000ED4
:102D5600066E02BEB3EF16F0B1EF16F0B9EF16F03D
:102D6600016C021ED8B0022A010E066E04BEC0EF28
:102D760016F0BEEF16F0C4EF16F0036C041ED8B0C2
:102D8600042A03500410D8B4CBEF16F0CDEF16F09A
:102D9600F1EF16F0010E056ED5EF16F0D89003365A
:102DA6000436052A04AEDAEF16F0DCEF16F0D1EFA2
:102DB60016F00350015C04500258D8A0E5EF16F057
:102DC600E7EF16F0EBEF16F00350015E0450025ADF
:102DD600D89004320332052EDCEF16F00650D8B434
:102DE600F7EF16F0F9EF16F0FDEF16F0016C021E84
:102DF600D8B0022A01C001F002C002F0120003504E
:102E0600D8B408EF17F00AEF17F012EF17F00350D7
:102E1600D8A410EF17F012EF17F017EF17F00150C4
:102E260046EC1CF056EF17F00350D96EDA6A0A0E1C
:102E3600D926DE50DE10D8B423EF17F025EF17F0B1
:102E46003EEF17F00350D96EDA6A0A0ED926035000
:102E5600E16EE26A030EE126DE50E65CE650800A89
:102E6600086EDE50800A0858D8B03CEF17F03EEFE7
:102E760017F056EF17F00350D96EDA6A030ED9260B
:102E8600DF50046E0350D96EDA6ADF500424D96E1F
:102E9600DA6A01C0DFFF0350D96EDA6A030ED9265B
:102EA600DE2A000EDD22120020EEF1F010EE2EF0EA
:102EB600050EDBCFE3FFE806FCE2000E346E2D5074
:102EC600D8A468EF17F06AEF17F06CEF17F0A1EFD0
:102ED60017F02DC001F0000E036E200E026E000EDC
:102EE600056E050E046E86EC1BF02D50D96EDA6A5F
:102EF600050ED926DF6A2E0E1A6E010E1B6E2BC02A
:102F06001CF02CC01DF03AEC1BF095EF17F0345076
:102F16002E0FD96EDA6A2D503424E16EE26ADFCFC5
:102F2600E7FF342A34502E0FD96EDA6ADF50D8A460
:102F36009FEF17F0A1EF17F08AEF17F01200000EBF
:102F4600196E000E1A6E1606CDEF17F014C00FF0AC
:102F56001650800F106ED6EC18F0EAEF17F014C07A
:102F66000FF01650C00F106ED6EC18F0EAEF17F0FF
:102F760014C00FF01650940F106ED6EC18F0EAEF4E
:102F860017F014C00FF01650D40F106ED6EC18F0D0
:102F9600EAEF17F01550176E186A1850000AD8B4E1
:102FA600D7EF17F0EAEF17F01750010AD8B4A9EFD8
:102FB60017F0030AD8B4B2EF17F0010AD8B4BBEF82
:102FC60017F0070AD8B4C4EF17F0EAEF17F0000EAF
:102FD6001200BC0EF66E370EF76E000EF86E01EE9E
:102FE60020F010EE20F00900F5CFEEFFE550E1509D
:102FF600FAE1680EF66E370EF76E000EF86E00EE0A
:10300600C6F010EE2BF00900F5CFEEFFE550E150CB
:10301600FAE16E0EF66E380EF76E000EF86E00EEE2
:1030260074F010EE0AF00900F5CFEEFFE550E1501E
:10303600FAE101EE00F0200EEE6AE806FDE100EE90
:10304600F1F00A0EEE6AE806FDE100EE48F02C0EFD
:10305600EE6AE806FDE17E907E92000131EF1CF0FB
:10306600000E0001906F000E916F8E51D8A43EEFB6
:1030760018F040EF18F044EF18F0000E926F6AEF68
:1030860018F08EC080F0000E816F24EC12F08EC016
:1030960088F000018F390F0B896F6DEC19F0000174
:1030A600916F8EC088F09EEC1BF00001916F8EC070
:1030B60088F08FC089F06DEC19F00001916F8EC019
:1030C60088F09EEC1BF00001916F010E926F9251F9
:1030D6001200000E1F6E000E206E1B50D8B476EF45
:1030E60018F078EF18F090EF18F01E50D8B47EEF75
:1030F60018F080EF18F090EF18F0050E1C6086EFC0
:1031060018F088EF18F090EF18F0280E1D648EEF77
:1031160018F090EF18F092EF18F0A2EF18F01BC01D
:1031260014F01CC015F01DC016F0A2EC17F0206EAE
:103136001BC014F01EC015F03CEC19F0206E1200F6
:10314600000E00018A6F8851D8B4ACEF18F0AEEFCC
:1031560018F0BEEF18F08851D96EDA6ADF30E8321F
:10316600E832070B896F070E8965BCEF18F0BEEFD2
:1031760018F0C2EF18F0000E8B6FD4EF18F088C06D
:1031860080F0000E816FC2EC12F000018A6F88C0D9
:1031960080F0000E816F24EC12F000018A6F010EA0
:1031A6008B6F8B511200000E116E000E126E0F50B7
:1031B600D8A4E0EF18F0E2EF18F0E6EF18F0000EF2
:1031C600136E07EF19F00FC001F0000E026E60ECEF
:1031D60013F00FC009F010380F0B0A6E14EC1AF03A
:1031E600126E0FC009F0CAEC1BF0126E0FC009F088
:1031F60010C00AF014EC1AF0126E0FC009F0CAECF7
:103206001BF0126E010E136E13501200000E116E9B
:10321600000E126E0F50D8A413EF19F015EF19F027
:1032260019EF19F0000E136E3AEF19F00FC001F006
:10323600010E026E60EC13F00FC009F010380F0B90
:103246000A6E14EC1AF0126E0FC009F0CAEC1BF0ED
:10325600126E0FC009F010C00AF014EC1AF0126ECC
:103266000FC009F0CAEC1BF0126E010E136E13505C
:103276001200000E166E000E176E1450D8B446EFEC
:1032860019F048EF19F050EF19F01550D8A44EEF89
:1032960019F050EF19F05EEF19F0000E186E6BEF93
:1032A60019F014C00FF01550D96EDA6ADF50106E9F
:1032B60009EC19F0152A1550D96EDA6ADF50D8A430
:1032C60067EF19F069EF19F054EF19F0010E186E57
:1032D60018501200000E00018C6F000E8D6F8CEFDF
:1032E60019F088518D25020F806F8DC08AF089C034
:1032F6008BF08A2B81EF19F0D8908B338A2F7FEFD2
:1033060019F000018B51010B816F24EC12F00001C2
:103316008D2BE4518D5DD8A093EF19F095EF19F040
:1033260074EF19F08C511200000E0A6E0950D8A4E1
:103336009FEF19F0A1EF19F0A5EF19F0000E0B6E33
:10334600BFEF19F009C001F0010E026E60EC13F038
:103356000950D96EDA6A010ED9260950E16EE26A81
:10336600E7BEB8EF19F0BBEF19F0010EBCEF19F08C
:10337600000EDF6E010E0B6E0B501200000E0A6E71
:103386000950D8A4C9EF19F0CBEF19F0CFEF19F017
:10339600000E0B6EE9EF19F009C001F0000E026E87
:1033A60060EC13F00950D96EDA6A010ED92609507D
:1033B600E16EE26AE7BEE2EF19F0E5EF19F0010E01
:1033C600E6EF19F0000EDF6E010E0B6E0B501200C9
:1033D6000001C351C411D8A4F3EF19F0F5EF19F0A9
:1033E600F9EF19F0000EC56F12EF1AF0AB9E948E2E
:1033F600948CC3C0B7F0C4C0B8F003EC08F0C3C0E7
:1034060080F0C4C081F051EC16F0C3C080F0C4C097
:1034160081F082EC15F0AB8E010E0001C56FC5512F
:103426001200000E0D6E000E0E6E30EF1AF00950EF
:103436000E24020F016E0EC00BF00AC00CF00B2A10
:1034460027EF1AF0D8900C320B2E25EF1AF00C50FD
:10345600010B026E60EC13F00E2A0001E4510E5CC3
:10346600D8A038EF1AF03AEF1AF01AEF1AF00D500A
:103476001200000E0A6E0950D8A444EF1AF046EF67
:103486001AF04AEF1AF0000E0B6E61EF1AF009C03F
:1034960001F0010E026E60EC13F00A6E0928016E4F
:1034A600000E026E60EC13F00A6E0950D96EDA6AED
:1034B600020ED926010EDF6E010E0B6E0B501200A6
:1034C600300E0001C36F010EC46FEBEC19F0E50E70
:1034D6000001936FFAEC13F0EE0E00018C6FD4EC42
:1034E6001AF0EB0E00018C6FD4EC1AF0780E000186
:1034F6008C6FAFEC1AF07A0E00018C6FAFEC1AF0FD
:103506007C0E00018C6FAFEC1AF01200000E0A6EF2
:103516000950D8A491EF1AF093EF1AF097EF1AF02A
:10352600000E0B6EADEF1AF009C001F0000E026E30
:1035360060EC13F00A6E0928016E000E026E60EC54
:1035460013F00A6E0950D96EDA6A020ED926DF6ABE
:10355600010E0B6E0B501200000E00018D6F8C5188
:10356600D8A4B8EF1AF0BAEF1AF0BCEF1AF0D3EFFE
:103576001AF08CC088F0A3EC18F000018C51D96EBB
:10358600DA6A010ED9268C51E16EE26AE7BECEEF09
:103596001AF0D1EF1AF0010ED2EF1AF0000EDF6E1C
:1035A6001200000E00018D6F8C51D8A4DDEF1AF0C9
:1035B600DFEF1AF0E3EF1AF0000E8E6FF7EF1AF056
:1035C6008CC088F0A3EC18F000018D6F8C29886FF1
:1035D600A3EC18F000018D6F8C51D96EDA6A020ED9
:1035E600D926DF6A010E8E6F8E511200000E3A6EDA
:1035F600000E3B6E3550D8A403EF1BF005EF1BF011
:1036060007EF1BF019EF1BF038C02BF039C02CF078
:10361600720E2D6E57EC17F035C01BF036C01CF03D
:1036260037C01DF0720E1E6E6CEC18F0120017C03B
:1036360019F026EF1BF016C00BF0190E0C6E18C011
:103646000DF061EC10F019C0F6FF100EF76EF86A77
:103656000800F5500009D8A433EF1BF035EF1BF036
:103666001EEF1BF0000E176E000E166E12001C0EDB
:103676001E6E1AC01FF0000E236E000E226E000E84
:103686002A6E000E296E1F0E166E1BC017F01E0E38
:10369600186E1AEC1BF01A502224D96EDA6ADF6A09
:1036A600120008BE59EF1BF05BEF1BF061EF1BF039
:1036B60007C007F008C008F06DEF1BF007C009F05F
:1036C60008C00AF0091E0A1E094A0A2A09C007F09C
:1036D6000AC008F012004E504F10D8B475EF1BF018
:1036E60077EF1BF085EF1BF002D883EF1BF0050088
:1036F600FA6E4E50FD6E4F50FE6EFF6AFA50120083
:1037060085EF1BF0120001C006F090EF1BF006508B
:10371600D96EDA6A02C0DFFF062A0406D8A00506BB
:10372600042806E10528D8A49BEF1BF09DEF1BF0AB
:103736008AEF1BF01200000E0001896F8829806F46
:10374600010E816F24EC12F0030EE82EFED7000066
:1037560000018829806F000E816F24EC12F0000EA4
:103766001200800F810F820F830F840F890F8A0F3B
:103776008B0F8C0F8D0F920F930F940F950F960F43
:0D37860004222A020A121A131B00030B0072
:10379400000E0A6E0928016E010E026E60EC13F031
:1037A400030EE82EFED700000928016E000E026EFB
:1037B40060EC13F0000E12003738392F3435362AF6
:1037C4003132332D23303D2B8025000000000300CF
:1037D4000000242A000000009EAAF3EF1BF0F5EF7E
:1037E4001BF0FCEF1BF00150D96EDA6AAECFDFFF9D
:1037F400FCEF1BF01200016EF2900150D8A405EF0B
:103804001CF007EF1CF009EF1CF009EF1CF012008C
:10381400016EF2900150D8A412EF1CF014EF1CF0CA
:1038240016EF1CF016EF1CF01200016EF29001501E
:10383400D8A41FEF1CF021EF1CF023EF1CF023EFA2
:103844001CF01200016EF2900150D8A42CEF1CF071
:103854002EEF1CF030EF1CF030EF1CF0120063EC84
:103864001AF033EF1CF007EF00F00101010123000F
:103874002B003300F0921200F0901200F29212002A
:0A3884009D9812009E9C1200120095
:020000040030CA
:0E000000FF02091EFF8181FF0FC00FE00F40BD
:00000001FF
