:0400000007EF00F016
:0A0008007E82A0ED12F0BCEF1EF0A6
:0510000000256900005D
:10100600000E0001BB6F000EBC6F000EBD6F000E20
:10101600BE6F46EF0AF0AC98AC94B896B7C0D9FF4D
:10102600B8C0DAFFDECFB9F0DDCFBAF0B9C080F0D4
:10103600BAC081F0826B836B000E2AEC15F080C07B
:1010460092F081C093F082C094F083C095F0000EB8
:1010560000018E6F240E8F6FF40E906F4A0E916F03
:1010660005EC0FF08EC0BFF08FC0C0F090C0C1F08D
:1010760091C0C2F0000E0001926F000E936F800EB9
:10108600946F420E956FBFC08EF0C0C08FF0C1C086
:1010960090F0C2C091F005EC0FF08EC0A7F08FC0A3
:1010A600A8F090C0A9F091C0AAF0000E0001AB6FA5
:1010B600000EAC6F800EAD6FBF0EAE6F8FEC0AF0F8
:1010C600A7C0BBF0A8C0BCF0A9C0BDF0AAC0BEF0C6
:1010D60071EF0AF0AC98AC84B896B7C0D9FFB8C027
:1010E600DAFFDECFB9F0DDCFBAF0B9C080F0BAC012
:1010F60081F0826B836B000E2AEC15F080C092F0B3
:1011060081C093F082C094F083C095F0000E000178
:101116008E6F240E8F6FF40E906F4A0E916F05EC52
:101126000FF08EC0BFF08FC0C0F090C0C1F091C06C
:10113600C2F0000E0001926F000E936F800E946F46
:10114600410E956FBFC08EF0C0C08FF0C1C090F049
:10115600C2C091F005EC0FF08EC0A7F08FC0A8F0CA
:1011660090C0A9F091C0AAF0000E0001AB6F000E6E
:10117600AC6F800EAD6FBF0EAE6F8FEC0AF0A7C0DE
:10118600BBF0A8C0BCF0A9C0BDF0AAC0BEF071EF0C
:101196000AF0AC98AC94B886B7C0D9FFB8C0DAFFED
:1011A600DECFB9F0DDCFBAF0B9C080F0BAC081F0B9
:1011B600826B836B000E2AEC15F080C092F081C022
:1011C60093F082C094F083C095F0000E00018E6FFC
:1011D600240E8F6FF40E906F4A0E916F05EC0FF090
:1011E6008EC0BFF08FC0C0F090C0C1F091C0C2F0F9
:1011F600000E0001926F000E936F800E946F410EE9
:10120600956FBFC08EF0C0C08FF0C1C090F0C2C055
:1012160091F005EC0FF08EC0A7F08FC0A8F090C03B
:10122600A9F091C0AAF0000E0001AB6F000EAC6FE2
:10123600800EAD6FBF0EAE6F8FEC0AF0A7C0BBF08D
:10124600A8C0BCF0A9C0BDF0AAC0BEF071EF0AF0FC
:10125600AC98AC84B886B7C0D9FFB8C0DAFFDECF89
:10126600B9F0DDCFBAF0B9C080F0BAC081F0826BB8
:10127600836B000E2AEC15F080C092F081C093F0CB
:1012860082C094F083C095F0000E00018E6F240E8C
:101296008F6FF40E906F4A0E916F05EC0FF08EC0B3
:1012A600BFF08FC0C0F090C0C1F091C0C2F0000E78
:1012B6000001926F000E936F800E946F400E956F33
:1012C600BFC08EF0C0C08FF0C1C090F0C2C091F018
:1012D60005EC0FF08EC0A7F08FC0A8F090C0A9F063
:1012E60091C0AAF0000E0001AB6F000EAC6F800E2D
:1012F600AD6FBF0EAE6F8FEC0AF0A7C0BBF0A8C0F3
:10130600BCF0A9C0BDF0AAC0BEF071EF0AF0AC886F
:10131600B896B7C0D9FFB8C0DAFFDECFB9F0DDCFD7
:10132600BAF0B9C080F0BAC081F0826B836B000E50
:101336002AEC15F080C092F081C093F082C094F040
:1013460083C095F0000E00018E6F240E8F6FF40E91
:10135600906F4A0E916F05EC0FF08EC0BFF08FC0F4
:10136600C0F090C0C1F091C0C2F0000E0001926FB3
:10137600000E936F800E946F400E956FBFC08EF077
:10138600C0C08FF0C1C090F0C2C091F005EC0FF064
:101396008EC0A7F08FC0A8F090C0A9F091C0AAF0A7
:1013A600000E0001AB6F000EAC6F800EAD6FBF0E6E
:1013B600AE6F8FEC0AF0A7C0BBF0A8C0BCF0A9C006
:1013C600BDF0AAC0BEF071EF0AF0AC88B886B7C00F
:1013D600D9FFB8C0DAFFDECFB9F0DDCFBAF0B9C0B9
:1013E60080F0BAC081F0826B836B000E2AEC15F098
:1013F60080C092F081C093F082C094F083C095F0D3
:10140600000E00018E6F240E8F6FF40E906F4A0E41
:10141600916F05EC0FF08EC0BFF08FC0C0F090C08A
:10142600C1F091C0C2F0000E0001926F000E936FE2
:10143600800E946F400E956FBFC08EF0C0C08FF0C7
:10144600C1C090F0C2C091F005EC0FF08EC0A7F0BD
:101456008FC0A8F090C0A9F091C0AAF0000E0001BC
:10146600AB6F000EAC6F800EAD6FBF0EAE6F8FEC24
:101476000AF0A7C0BBF0A8C0BCF0A9C0BDF0AAC0C6
:10148600BEF071EF0AF020EE02F0B751D926B8513E
:10149600DA22DF50B96FBA6BBA51000AD8B456EFE8
:1014A6000AF071EF0AF0B951000AD8B40EEF08F04D
:1014B600010AD8B46DEF08F0030AD8B4CCEF08F0EF
:1014C600010AD8B42BEF09F0070AD8B48AEF09F05D
:1014D600010AD8B4E8EF09F071EF0AF0BBC080F05A
:1014E600BCC081F0BDC082F0BEC083F044EC19F0F0
:1014F60000018051AF6EBBC080F0BCC081F0BDC0A2
:1015060082F0BEC083F044EC19F0000181C080F087
:10151600816B8051B06E12000001AA51800BB36F2F
:10152600AA51AA25B56FA9AF9BEF0AF09DEF0AF065
:101536009EEF0AF0B581B551D8B4A4EF0AF0A6EF34
:101546000AF0BBEF0AF0B529D8A4ACEF0AF0AEEF6B
:101556000AF0B6EF0AF0000EA76F000EA86F000E95
:10156600A96F000EAA6FA98F000EAA6FC3EF0AF02B
:10157600000EA76F000EA86F000EA96F000EAA6FCF
:10158600AE51800BB46FB351B419D8B4CDEF0AF095
:10159600CFEF0AF0D0EF0AF0B38DAE51AE25B46F9F
:1015A600ADAFD8EF0AF0DAEF0AF0DBEF0AF0B4815C
:1015B600B451D8B4E1EF0AF0E3EF0AF0F8EF0AF01D
:1015C600B429D8A4E9EF0AF0EBEF0AF0F3EF0AF03A
:1015D600000EAB6F000EAC6F000EAD6F000EAE6F5F
:1015E600AD8F000EAE6F00EF0BF0000EAB6F000E6E
:1015F600AC6F000EAD6F000EAE6FB551B45DD8B0D6
:1016060007EF0BF009EF0BF030EF0BF0B3AD0EEF79
:101616000BF010EF0BF012EF0BF0800EB31BB5C002
:10162600B6F0B4C0B5F0B6C0B4F0A7C0B6F0ABC063
:10163600A7F0B6C0ABF0A8C0B6F0ACC0A8F0B6C074
:10164600ACF0A9C0B6F0ADC0A9F0B6C0ADF0AAC066
:10165600B6F0AEC0AAF0B6C0AEF0000EB66FB55189
:10166600B4C0AFF0B06BAF5F000EB05BB0BF45EF7C
:101676000BF0B05109E11A0EAF5DD8A045EF0BF0A3
:1016860047EF0BF07EEF0BF0A751A811A911AA1195
:10169600D8A450EF0BF053EF0BF0010E54EF0BF004
:1016A600000EB66F000EA76F000EA86F000EA96F92
:1016B600000EAA6FB4C0B5F087EF0BF0B6A166EFC7
:1016C6000BF068EF0BF06EEF0BF0D890B631010916
:1016D600B66F70EF0BF0D890B633A7A175EF0BF08D
:1016E60077EF0BF078EF0BF0B68FAA35AA33A93354
:1016F600A833A733B52BB451B55DD8A085EF0BF051
:1017060087EF0BF061EF0BF0B3BD8CEF0BF08EEFB4
:101716000BF0CEEF0BF0B551D8A494EF0BF096EF8B
:101726000BF0A0EF0BF0000EA76F000EA86F000ED7
:10173600A96F000EAA6FEFEF0CF0AB51A727AC51C3
:10174600A823AD51A923AE51AA23AAA1ADEF0BF050
:10175600AFEF0BF05BEF0CF0B6A1B4EF0BF0B6EF0A
:101766000BF0BCEF0BF0D890B6310109B66FBEEFA7
:101776000BF0D890B633A7A1C3EF0BF0C5EF0BF073
:10178600C6EF0BF0B68FAA35AA33A933A833A73311
:10179600B52B5BEF0CF0AB51A75DAC51A859AD5121
:1017A600A959AA51800AAF6FAE51800AAF59D8B075
:1017B600DFEF0BF0E1EF0BF00CEF0CF0A751AB5D98
:1017C600AF6FA851AC59B06FA951AD59B16FAA51BD
:1017D600AE59B26FFF0EAF25A76FFF0EB021A86FEF
:1017E600FF0EB121A96FFF0EB221AA6F800EB31BA7
:1017F600B66DB651D8A402EF0CF004EF0CF014EF5E
:101806000CF0010EA727000EA823A923AA2314EF84
:101816000CF0AB51A75FAC51A85BAD51A95BAE51C3
:10182600AA5BA751A811A911AA11D8A41DEF0CF003
:101836001FEF0CF054EF0CF0B651D8A425EF0CF0C6
:1018460027EF0CF054EF0CF0000EA76F000EA86FF8
:10185600000EA96F000EAA6FEFEF0CF0D890A73715
:10186600A837A937AA37B6AF3BEF0CF03DEF0CF01F
:101876003EEF0CF0A781B6A143EF0CF045EF0CF05C
:1018860049EF0CF0D880B6374BEF0CF0D890B6374E
:10189600B551D8B451EF0CF053EF0CF054EF0CF0F7
:1018A600B507A9AF59EF0CF05BEF0CF031EF0CF078
:1018B600000EB46FB6AF62EF0CF064EF0CF07CEF85
:1018C6000CF0B6C0AFF07F0EAF17D8B46DEF0CF0CA
:1018D6006FEF0CF073EF0CF0010EB46F7CEF0CF0B1
:1018E600A7A178EF0CF07AEF0CF07CEF0CF06FEF1D
:1018F6000CF0B451D8B482EF0CF084EF0CF0AFEFDB
:101906000CF0010EA727000EA823A923AA23AAA13B
:101916008FEF0CF091EF0CF0AFEF0CF0A7C0AFF02B
:10192600A8C0B0F0A9C0B1F0AAC0B2F0B235B233C7
:10193600B133B033AF33AFC0A7F0B0C0A8F0B1C079
:10194600A9F0B2C0AAF0B529D8B4ACEF0CF0AEEF4E
:101956000CF0AFEF0CF0B52BB529D8B4B5EF0CF001
:10196600B7EF0CF0BFEF0CF0B551D8A4BDEF0CF0FB
:10197600BFEF0CF0D1EF0CF0000EA76F000EA86FB2
:10198600000EA96F000EAA6FB551D8A4CDEF0CF0CA
:10199600CFEF0CF0D1EF0CF0000EB36FB5A1D6EF80
:1019A6000CF0D8EF0CF0DBEF0CF0A98FDCEF0CF0AD
:1019B600A99FD890B531AA6FB3AFE4EF0CF0E6EF6C
:1019C6000CF0E7EF0CF0AA8FA7C0A7F0A8C0A8F00C
:1019D600A9C0A9F0AAC0AAF012001250800B1B6E73
:1019E60012501224216E11AEFBEF0CF0FDEF0CF03D
:1019F600FEEF0CF021802150D8B404EF0DF006EF75
:101A06000DF019EF0DF02128D8A40CEF0DF00EEF14
:101A16000DF016EF0DF0000E0F6E000E106E000E9C
:101A2600116E000E126E118E21EF0DF0000E0F6E6C
:101A3600000E106E000E116E000E126E1650800B08
:101A46001B1A16501624206E15AE2CEF0DF02EEF35
:101A56000DF02FEF0DF020802050D8B435EF0DF0AB
:101A660037EF0DF04AEF0DF02028D8A43DEF0DF02A
:101A76003FEF0DF047EF0DF0000E136E000E146EE3
:101A8600000E156E000E166E158E52EF0DF0000E3E
:101A9600136E000E146E000E156E000E166E20509C
:101AA600D8B458EF0DF05AEF0DF062EF0DF021505B
:101AB600D8A460EF0DF062EF0DF06CEF0DF0000EA4
:101AC6000F6E000E106E000E116E000E126E04EFF9
:101AD6000FF015500F02F3CF26F0F4CF27F0265063
:101AE6001C6E1D6A1E6A1F6A2750226E236A246AAC
:101AF600256A14501002F3CF26F0F4CF27F02650B3
:101B06001C26000E1D221E221F2227502226000EF2
:101B160023222422252213501102F3CF26F0F4CFDC
:101B260027F026501C26000E1D221E221F2227509B
:101B36002226000E2322242225221EC01FF01DC0AD
:101B46001EF01CC01DF01C6A13501002F3CF26F0C5
:101B5600F4CF27F026501C2627501D22000E1E22E9
:101B6600000E1F2214500F02F3CF26F0F4CF27F0F9
:101B760026501C2627501D22000E1E22000E1F2254
:101B86001EC01FF01DC01EF01CC01DF01C6A1350A5
:101B96000F02F3CF26F0F4CF27F026501C2627504D
:101BA6001D22000E1E22000E1F2215501002F3CF1A
:101BB60026F0F4CF27F02650222627502322000EA7
:101BC6002422000E252214501102F3CF26F0F4CF62
:101BD60027F02650222627502322000E2422000E0C
:101BE600252215501102F3CF26F0F4CF27F0265008
:101BF600176E2750186E196A1A6A19C01AF018C09B
:101C060019F017C018F0176A175022261850232209
:101C1600195024221A5025221CC017F01DC018F096
:101C26001EC019F01FC01AF0190E1FEF0EF0D89043
:101C36001A32193218321732E82E1AEF0EF01750F0
:101C4600222618502322195024221A5025221EC05B
:101C56001FF01DC01EF01CC01DF01C6A205021C0C4
:101C660017F0186A1726000E1822820E1724266E01
:101C7600FF0E1820276E55EF0EF0D8902236233629
:101C8600243625361FAE4AEF0EF04CEF0EF04DEF20
:101C96000EF02280D8901C361D361E361F362606BC
:101CA600D8A0270624AE5AEF0EF05CEF0EF040EFF8
:101CB6000EF0000E206E1FAE63EF0EF065EF0EF015
:101CC60089EF0EF0FF0E1C14176EFF0E1D14186E12
:101CD600FF0E1E14196E7F0E1F141A6E1750181061
:101CE60019101A10D8B47AEF0EF07CEF0EF080EFD0
:101CF6000EF0010E206E89EF0EF022A085EF0EF099
:101D060087EF0EF089EF0EF07CEF0EF02050D8B47E
:101D16008FEF0EF091EF0EF0B5EF0EF0010E2226CA
:101D2600000E23222422252225A09CEF0EF09EEFF2
:101D36000EF0B5EF0EF022C017F023C018F024C045
:101D460019F025C01AF01A341A321932183217321D
:101D560017C022F018C023F019C024F01AC025F0CD
:101D6600264A272A27BEC0EF0EF0275008E126286C
:101D7600D8A0C0EF0EF0C2EF0EF0CCEF0EF0000EC2
:101D8600226E000E236E800E246E7F0E256EFAEFF5
:101D96000EF027BED9EF0EF0275006E12604D8B084
:101DA600D7EF0EF0D9EF0EF0E5EF0EF0000E226E33
:101DB600000E236E000E246E000E256E000E1B6EA6
:101DC600FAEF0EF026C021F0FF0E2216FF0E2316A4
:101DD6007F0E2416000E251621A0F4EF0EF0F6EF66
:101DE6000EF0F7EF0EF0248ED8902130256E1B50A2
:101DF600251222C00FF023C010F024C011F025C018
:101E060012F0120000019151800B9E6F91519125A5
:101E1600A56F90AF11EF0FF013EF0FF014EF0FF067
:101E2600A581A551D8B41AEF0FF01CEF0FF031EFD2
:101E36000FF0A529D8A422EF0FF024EF0FF02CEF16
:101E46000FF0000E8E6F000E8F6F000E906F000E5B
:101E5600916F908F000E916F39EF0FF0000E8E6F1D
:101E6600000E8F6F000E906F000E916F9551800BD4
:101E76009E1B95519525A66F94AF44EF0FF046EF44
:101E86000FF047EF0FF0A681A651D8B44DEF0FF033
:101E96004FEF0FF064EF0FF0A629D8A455EF0FF01F
:101EA60057EF0FF05FEF0FF0000E926F000E936F7B
:101EB600000E946F000E956F948F000E956F6CEF69
:101EC6000FF0000E926F000E936F000E946F000ECF
:101ED600956F9251931194119511D8A475EF0FF047
:101EE60077EF0FF08FEF0FF0000E8E6F000E8F6FF3
:101EF600000E906F000E916F800E90137F0E91135F
:101F06009E5191138EC08EF08FC08FF090C090F0CE
:101F160091C091F0D2EF10F0A551D8A495EF0FF033
:101F260097EF0FF0A1EF0FF0000E8E6F000E8F6F80
:101F3600000E906F000E916FD2EF10F0A651A5C063
:101F460096F0976B965F000E975B7F0E96259F6FB8
:101F5600000E9721A06F8EC09AF08FC09BF090C0A4
:101F66009CF091C09DF0000E8E6F000E8F6F000EDC
:101F7600906F000E916F000EA16F000EA26F000E03
:101F8600A36F000EA46F000EA66F02EF10F0A6510D
:101F9600D8B4D0EF0FF0D2EF0FF0E9EF0FF0D890F2
:101FA6009A379B379C379D37D8908E378F37903727
:101FB6009137A4AFE1EF0FF0E3EF0FF0E4EF0FF08E
:101FC6008E81D890A137A237A337A43792519A5D54
:101FD60093519B5994519C5995519D59D8A0F6EF10
:101FE6000FF0F8EF0FF001EF10F0A48D92519A5F09
:101FF60093519B5B94519C5B95519D5BA62B190E4F
:10200600A66508EF10F00AEF10F0CAEF0FF09A512C
:102016009B119C119D11D8B413EF10F015EF10F021
:102026002DEF10F0A1812DEF10F0D8908E378F375D
:1020360090379137A4AF22EF10F024EF10F025EF80
:1020460010F08E81D890A137A237A337A4379F0707
:10205600D8A0A00790AF32EF10F034EF10F018EFD1
:1020660010F0000EA66FA4AF3BEF10F03DEF10F09E
:1020760061EF10F0FF0EA115966FFF0EA215976F78
:10208600FF0EA315986F7F0EA415996F96519711A1
:1020960098119911D8B452EF10F054EF10F058EF90
:1020A60010F0010EA66F61EF10F08EA15DEF10F03B
:1020B6005FEF10F061EF10F054EF10F0A651D8B4B6
:1020C60067EF10F069EF10F08DEF10F0010E8E271C
:1020D600000E8F239023912391A174EF10F076EFD9
:1020E60010F08DEF10F08EC096F08FC097F090C074
:1020F60098F091C099F09935993398339733963380
:1021060096C08EF097C08FF098C090F099C091F06D
:102116009F4BA02BA0BF98EF10F0A05108E19F297C
:10212600D8A098EF10F09AEF10F0A5EF10F0000E7F
:10213600A06F9F69000E8E6F000E8F6F000E906F5E
:10214600000E916FA0BFB2EF10F0A05106E19F05FF
:10215600D8B0B0EF10F0B2EF10F0C0EF10F0000EF4
:10216600A06F000E9F6F000E8E6F000E8F6F000E19
:10217600906F000E916F000E9E6F9FC0A5F0A5A1F7
:10218600C7EF10F0C9EF10F0CCEF10F0908FCDEF45
:1021960010F0909FD890A531916F83EF0FF0120049
:1021A6002B50800B386E2B502B243F6E2AAEDEEF61
:1021B60010F0E0EF10F0E1EF10F03F803F50D8B4A0
:1021C600E7EF10F0E9EF10F0FEEF10F03F28D8A48B
:1021D600EFEF10F0F1EF10F0F9EF10F0000E286EAF
:1021E600000E296E000E2A6E000E2B6E2A8E000E31
:1021F6002B6E06EF11F0000E286E000E296E000EF3
:102206002A6E000E2B6E2F50800B381A2F502F245B
:10221600406E2EAE11EF11F013EF11F014EF11F026
:1022260040804050D8B41AEF11F01CEF11F031EF96
:1022360011F04028D8A422EF11F024EF11F02CEF72
:1022460011F0000E2C6E000E2D6E000E2E6E000E7E
:102256002F6E2E8E000E2F6E39EF11F0000E2C6EA3
:10226600000E2D6E000E2E6E000E2F6E2C502D10B1
:102276002E102F10D8A442EF11F044EF11F05CEFAE
:1022860011F0000E286E000E296E000E2A6E000E4A
:102296002B6E800E2A127F0E2B1238502B1228C05E
:1022A60028F029C029F02AC02AF02BC02BF09FEF76
:1022B60012F03F50D8A462EF11F064EF11F06EEF08
:1022C60011F0000E286E000E296E000E2A6E000E0A
:1022D6002B6E9FEF12F040503FC030F0316A305EF7
:1022E600000E315A7F0E3024396E000E31203A6EC0
:1022F60028C034F029C035F02AC036F02BC037F09C
:10230600000E286E000E296E000E2A6E000E2B6E31
:10231600000E3B6E000E3C6E000E3D6E000E3E6ED5
:10232600000E406ECFEF11F04050D8B49DEF11F083
:102336009FEF11F0B6EF11F0D890343635363636B9
:102346003736D890283629362A362B363EAEAEEFAB
:1023560011F0B0EF11F0B1EF11F02880D8903B36B4
:102366003C363D363E362C50345C2D5035582E507A
:1023760036582F503758D8A0C3EF11F0C5EF11F0DB
:10238600CEEF11F03E8C2C50345E2D50355A2E5027
:10239600365A2F50375A402A190E4064D5EF11F09D
:1023A600D7EF11F097EF11F0345035103610371083
:1023B600D8B4E0EF11F0E2EF11F0FAEF11F03B8044
:1023C600FAEF11F0D890283629362A362B363EAE4B
:1023D600EFEF11F0F1EF11F0F2EF11F02880D89045
:1023E6003B363C363D363E363906D8A03A062AAE4E
:1023F600FFEF11F001EF12F0E5EF11F0000E406E65
:102406003EAE08EF12F00AEF12F02EEF12F0FF0EBA
:102416003B14306EFF0E3C14316EFF0E3D14326ECF
:102426007F0E3E14336E3050311032103310D8B454
:102436001FEF12F021EF12F025EF12F0010E406EA1
:102446002EEF12F028A02AEF12F02CEF12F02EEF4A
:1024560012F021EF12F04050D8B434EF12F036EFFC
:1024660012F05AEF12F0010E2826000E29222A2217
:102476002B222BA041EF12F043EF12F05AEF12F08D
:1024860028C030F029C031F02AC032F02BC033F01A
:102496003334333232323132303230C028F031C048
:1024A60029F032C02AF033C02BF0394A3A2A3ABE14
:1024B60065EF12F03A5008E13928D8A065EF12F01E
:1024C60067EF12F072EF12F0000E3A6E3968000EE6
:1024D600286E000E296E000E2A6E000E2B6E3ABE76
:1024E6007FEF12F03A5006E13904D8B07DEF12F0D2
:1024F6007FEF12F08DEF12F0000E3A6E000E396E7D
:10250600000E286E000E296E000E2A6E000E2B6E2F
:10251600000E386E39C03FF03FA094EF12F096EFF0
:1025260012F099EF12F02A8E9AEF12F02A9ED890A6
:102536003F302B6E50EF11F012000600FACF52F02A
:10254600FBCF53F0E1CF54F0E2CF55F0D9CF56F0A0
:10255600DACF57F0F3CF58F0F4CF59F0F6CF5AF060
:10256600F7CF5BF0F8CF5CF0F5CF5DF0F2A8BEEFE9
:1025760012F0C0EF12F0C9EF12F0F2A2C5EF12F09E
:10258600C7EF12F0C9EF12F045EC22F0F0A6CEEF3D
:1025960012F0D0EF12F0D9EF12F0F0A0D5EF12F052
:1025A600D7EF12F0D9EF12F043EC22F0F0A8DEEFED
:1025B60012F0E0EF12F0E9EF12F0F0A2E5EF12F000
:1025C600E7EF12F0E9EF12F041EC22F0F2A6EEEF9F
:1025D60012F0F0EF12F00BEF13F0F2A0F5EF12F09D
:1025E600F7EF12F00BEF13F081A8FCEF12F0FEEFFD
:1025F60012F00BEF13F07D04D8A404EF13F006EFEE
:1026060013F00BEF13F0000E7D6E000E2FEC22F090
:10261600F2A610EF13F012EF13F02DEF13F0F2A065
:1026260017EF13F019EF13F02DEF13F081B81EEF2B
:1026360013F020EF13F02DEF13F07D50D8A426EF02
:1026460013F028EF13F02DEF13F0010E7D6E010E3F
:102656002FEC22F0F2A632EF13F034EF13F04FEF27
:1026660013F0F2A039EF13F03BEF13F04FEF13F036
:1026760081AA40EF13F042EF13F04FEF13F07C0402
:10268600D8A448EF13F04AEF13F04FEF13F0000E03
:102696007C6E000E22EC22F0F2A654EF13F056EFF9
:1026A60013F071EF13F0F2A05BEF13F05DEF13F090
:1026B60071EF13F081BA62EF13F064EF13F071EF6C
:1026C60013F07C50D8A46AEF13F06CEF13F071EF9F
:1026D60013F0010E7C6E010E22EC22F0F2A676EFCC
:1026E60013F078EF13F093EF13F0F2A07DEF13F0F1
:1026F6007FEF13F093EF13F081AC84EF13F086EFC6
:1027060013F093EF13F07B04D8A48CEF13F08EEF45
:1027160013F093EF13F0000E7B6E000E15EC22F013
:10272600F2A698EF13F09AEF13F0B5EF13F0F2A0BC
:102736009FEF13F0A1EF13F0B5EF13F081BCA6EFF6
:1027460013F0A8EF13F0B5EF13F07B50D8A4AEEF5B
:1027560013F0B0EF13F0B5EF13F0010E7B6E010E20
:1027660015EC22F0F2A6BAEF13F0BCEF13F0D7EF98
:1027760013F0F2A0C1EF13F0C3EF13F0D7EF13F08D
:1027860081AEC8EF13F0CAEF13F0D7EF13F07A0457
:10279600D8A4D0EF13F0D2EF13F0D7EF13F0000E5A
:1027A6007A6E000E08EC22F0F2A6DCEF13F0DEEFF4
:1027B60013F0F9EF13F0F2A0E3EF13F0E5EF13F0E7
:1027C600F9EF13F081BEEAEF13F0ECEF13F0F9EF37
:1027D60013F07A50D8A4F2EF13F0F4EF13F0F9EFF8
:1027E60013F0010E7A6E010E08EC22F09DACFEEF9E
:1027F60013F000EF14F009EF14F09EAC05EF14F09F
:1028060007EF14F009EF14F091EC21F09DA80EEFFC
:1028160014F010EF14F019EF14F09EA815EF14F051
:1028260017EF14F019EF14F047EC22F09DAA1EEFF3
:1028360014F020EF14F029EF14F09EAA25EF14F0FF
:1028460027EF14F029EF14F04AEC22F05DC0F5FFF3
:102856005CC0F8FF5BC0F7FF5AC0F6FF59C0F4FF33
:1028660058C0F3FF57C0DAFF56C0D9FF55C0E2FF84
:1028760054C0E1FF53C0FBFF52C0FAFF7E92110025
:102886000C50D96EDA6ADFCFF6FF100EF76EF86AD3
:102896000800F550250AD8A453EF14F055EF14F0AC
:1028A60017EF15F00C50D96EDA6ADF2A000E000118
:1028B600ED6F000EEC6FECC06EF0EE69EF690C5038
:1028C600D96EDA6ADF50106E10C0F6FF100EF76E82
:1028D600F86A0800F550640AD8B474EF14F076EF7D
:1028E60014F085EF14F010C0F6FF100EF76EF86ABC
:1028F6000800F550690AD8A483EF14F085EF14F0A8
:1029060011EF15F00D50D96EDA6A020EDF26DF5C84
:10291600D96EDA6ADECF11F0DECF12F00C50D96E26
:10292600DA6A1028DF6E200E156E12BE9DEF14F0C7
:10293600A0EF14F0010EA1EF14F0000E0F6E1506B5
:10294600910E1524D96EDA6A010EDA2211C001F051
:1029560012C002F0000E046E0A0E036ED9EC1CF0D3
:1029660001C007F002C008F047EC21F00750300F15
:10297600DF6E11C001F012C002F0000E046E0A0EE6
:10298600036E1EEC1CF001C011F002C012F01150D3
:102996001210D8B4D1EF14F0D3EF14F0DBEF14F02B
:1029A6001550D8A4D9EF14F0DBEF14F0A2EF14F011
:1029B6001550D8B4E1EF14F0E3EF14F006EF15F07C
:1029C6000F50D8B4E9EF14F0EBEF14F006EF15F062
:1029D6001506910E1524D96EDA6A010EDA222D0E2D
:1029E600DF6E06EF15F0910E1524D96EDA6A010E28
:1029F600DA22DF500E6E0E50016E026A0BC003F033
:102A060089EC1DF0152A200E1518D8A40DEF15F027
:102A16000FEF15F0F6EF14F029EF15F00C50D96E04
:102A2600DA6ADF2A29EF15F00C50D96EDA6ADFCFA1
:102A3600F6FF100EF76EF86A0800F550016E026A8E
:102A46000BC003F089EC1DF011EF15F01200000128
:102A5600886F00018851D8B433EF15F035EF15F0C3
:102A660057EF15F083BF3CEF15F03AEF15F057EF2F
:102A760015F080C084F081C085F082C086F083C0E6
:102A860087F0841F851F861F871F842B000E8523D2
:102A96008623872384C08AF085C08BF086C08CF09D
:102AA60087C08DF05FEF15F080C08AF081C08BF093
:102AB60082C08CF083C08DF0805181118211831108
:102AC600D8A468EF15F06AEF15F074EF15F0000E54
:102AD600806F000E816F000E826F000E836F05EF10
:102AE60016F0960E896F7EEF15F0892BD8908D33F0
:102AF6008C338B338A33000E8A15846F000E8B1548
:102B0600856F000E8C15866FFE0E8D15876F8451AE
:102B1600851186118711D8A493EF15F095EF15F05E
:102B260078EF15F0A3EF15F0892B010E8A27000E1A
:102B36008B238C238D23D8908D338C338B338A3320
:102B4600000E8A15846F000E8B15856F000E8C158E
:102B5600866FFF0E8D15876F84518511861187113B
:102B6600D8A4B8EF15F0BAEF15F097EF15F0C2EF4D
:102B760015F08907D8908A378B378C378D378CBFFD
:102B8600C7EF15F0C9EF15F0D1EF15F0020E896108
:102B9600CFEF15F0D1EF15F0BCEF15F089B1D6EFF8
:102BA60015F0D8EF15F0D9EF15F08C9FD890893332
:102BB60089C084F0856B866B876B84C087F0866BD3
:102BC600856B846B84518A1385518B1386518C13C4
:102BD60087518D138851D8B4F3EF15F0F5EF15F042
:102BE600FDEF15F083BFFCEF15F0FAEF15F0FDEFE2
:102BF60015F08D8F8AC080F08BC081F08CC082F07A
:102C06008DC083F01200096E0950D8B40DEF16F08E
:102C16000FEF16F031EF16F004BE16EF16F014EFB4
:102C260016F031EF16F001C005F002C006F003C041
:102C360007F004C008F0051E061E071E081E052A1A
:102C4600000E06220722082205C00BF006C00CF073
:102C560007C00DF008C00EF039EF16F001C00BF0FA
:102C660002C00CF003C00DF004C00EF001500210BB
:102C760003100410D8A442EF16F044EF16F04EEFFE
:102C860016F0000E016E000E026E000E036E000EB0
:102C9600046EDFEF16F0960E0A6E58EF16F00A2A4B
:102CA600D8900E320D320C320B32000E0B14056E1C
:102CB600000E0C14066E000E0D14076EFE0E0E149A
:102CC600086E0550061007100810D8A46DEF16F010
:102CD6006FEF16F052EF16F07DEF16F00A2A010E8E
:102CE6000B26000E0C220D220E22D8900E320D322B
:102CF6000C320B32000E0B14056E000E0C14066E11
:102D0600000E0D14076EFF0E0E14086E0550061009
:102D160007100810D8A492EF16F094EF16F071EF92
:102D260016F09CEF16F00A06D8900B360C360D36C8
:102D36000E360DBEA1EF16F0A3EF16F0ABEF16F0B0
:102D4600020E0A60A9EF16F0ABEF16F096EF16F03A
:102D56000AB0B0EF16F0B2EF16F0B3EF16F00D9E14
:102D6600D8900A320AC005F0066A076A086A05C0E2
:102D760008F0076A066A056A05500B1206500C121F
:102D860007500D1208500E120950D8B4CDEF16F0A8
:102D9600CFEF16F0D7EF16F004BED6EF16F0D4EF4D
:102DA60016F0D7EF16F00E8E0BC001F00CC002F035
:102DB6000DC003F00EC004F0120000018051D8B41B
:102DC600E7EF16F0E9EF16F001EF17F08051D96E34
:102DD600DA6ADF30E832E832070B826F080E82616A
:102DE600F7EF16F0F9EF16F001EF17F0010E816517
:102DF600FFEF16F001EF17F05CEF17F0000E876F8C
:102E06007CEF17F08051D96EDA6ADF30E832E832AB
:102E1600070B826F010E836F822B14EF17F0D89089
:102E26008337822F12EF17F000018351FF0A846F58
:102E36008051D96EDA6ADF50070B020DF350C30FCB
:102E4600D96EDA6ADECF85F0DDCF86F085C0D9FF90
:102E560086C0DAFF8451DF1671EF17F08051D96E04
:102E6600DA6ADF30E832E832070B826F010E836FD1
:102E7600822B40EF17F0D8908337822F3EEF17F062
:102E860000018051D96EDA6ADF50070B020DF3504C
:102E9600C30FD96EDA6ADECF84F0DDCF85F084C049
:102EA600D9FF85C0DAFF8351DF1271EF17F071EF9A
:102EB60017F08151826F836B8351000AD8B466EF95
:102EC60017F05AEF17F08251000AD8B405EF17F041
:102ED600010AD8B431EF17F05AEF17F08051D96EC6
:102EE600DA6A81B102D0DF9E02D00001DF8E010EC8
:102EF600876F8751120000018051D8B485EF17F013
:102F060087EF17F09FEF17F08051D96EDA6ADF303E
:102F1600E832E832070B826F080E826195EF17F0F0
:102F260097EF17F09FEF17F0010E81659DEF17F0F1
:102F36009FEF17F0FAEF17F0000E876F1AEF18F0F1
:102F46008051D96EDA6ADF30E832E832070B826FD9
:102F5600010E836F822BB2EF17F0D8908337822F42
:102F6600B0EF17F000018351FF0A846F8051D96ECC
:102F7600DA6ADF50070B020DF350CD0FD96EDA6A0D
:102F8600DECF85F0DDCF86F085C0D9FF86C0DAFFBB
:102F96008451DF160FEF18F08051D96EDA6ADF30F0
:102FA600E832E832070B826F010E836F822BDEEF69
:102FB60017F0D8908337822FDCEF17F0000180518D
:102FC600D96EDA6ADF50070B020DF350CD0FD96EBA
:102FD600DA6ADECF84F0DDCF85F084C0D9FF85C004
:102FE600DAFF8351DF120FEF18F00FEF18F081515F
:102FF600826F836B8351000AD8B404EF18F0F8EFA0
:1030060017F08251000AD8B4A3EF17F0010AD8B41A
:10301600CFEF17F0F8EF17F08051D96EDA6A81B169
:1030260002D0DF9C02D00001DF8C010E876F875132
:1030360012000150D8B422EF18F024EF18F03CEF3C
:1030460018F00150D96EDA6ADF30E832E832070B41
:10305600036E080E036032EF18F034EF18F03CEF01
:1030660018F0010E02643AEF18F03CEF18F095EFF5
:1030760018F0000E086EB4EF18F00150D96EDA6A37
:10308600DF30E832E832070B036E010E046E032AC6
:103096004FEF18F0D8900436032E4DEF18F0045079
:1030A600FF0A056E0150D96EDA6ADF50070B020D72
:1030B600F350C30FD96EDA6ADECF06F0DDCF07F024
:1030C60006C0D9FF07C0DAFF0550DF16AAEF18F0D1
:1030D6000150D96EDA6ADF30E832E832070B036E48
:1030E600010E046E032A7AEF18F0D8900436032EE8
:1030F60078EF18F00150D96EDA6ADF50070B020D2F
:10310600F350C30FD96EDA6ADECF05F0DDCF06F0D5
:1031160005C0D9FF06C0DAFF0450DF12AAEF18F087
:10312600AAEF18F00250036E046A0450000AD8B4DD
:103136009FEF18F093EF18F00350000AD8B440EF51
:1031460018F0010AD8B46BEF18F093EF18F001509D
:10315600D96EDA6A02B002D0DF9E01D0DF8E010E90
:10316600086E08501200000E0001966F000E976F51
:103176009351D8A4C1EF18F0C3EF18F0C5EF18F0BB
:1031860043EF19F09329886F73EC1FF00001966FD7
:1031960093C088F073EC1FF00001966F000E986FD5
:1031A600DDEF18F093519825020F886F73EC1FF02E
:1031B6000001982BE551985DD8A0E4EF18F0E6EFF2
:1031C60018F0D5EF18F0340E0001946FF10EE82ECA
:1031D600FED7942FFCD700D093C08EF0380E000196
:1031E6008F6F03EC1FF00D0E0001946FFB0EE82E9F
:1031F600FED7942FFCD700D093C08EF0380E000176
:103206008F6F03EC1FF0020E0001956F860E946F10
:10321600990EE82EFED7942FFCD7952FFAD793C098
:103226008EF0380E00018F6F03EC1FF093C08EF006
:10323600010E00018F6F03EC1FF093C08EF0020E9B
:1032460000018F6F03EC1FF093C08EF0060E000195
:103256008F6F03EC1FF093C08EF00C0E00018F6F82
:1032660003EC1FF093C08EF0800E00018F6F03EC0D
:103276001FF093C08EF0280E00018F6F03EC1FF035
:103286001200000182358335896F8951D8A44EEF2B
:1032960019F050EF19F05AEF19F0000E806F000E7A
:1032A600816F000E826F000E836FC7EF19F080C02A
:1032B60084F081C085F082C086F083C087F0200E3E
:1032C6006AEF19F0D8908733863385338433E82E36
:1032D60065EF19F08451886F828FFF0E8017FF0EFD
:1032E6008117FF0E8217000E8317960E895F89BF1E
:1032F60081EF19F07FEF19F097EF19F08951800AE5
:10330600970FD8B089EF19F08BEF19F08DEF19F000
:1033160050EF19F0D8908333823381338033893F5D
:103326008DEF19F0AFEF19F01F0E89659DEF19F0BB
:103336009FEF19F0A7EF19F050EF19F0D8908037EA
:1033460081378237833789078951D8A4ADEF19F0C1
:10335600AFEF19F0A1EF19F08851D8B4B5EF19F015
:10336600B7EF19F0BFEF19F0831F821F811F806D21
:10337600000E81238223832380C080F081C081F0E8
:1033860082C082F083C083F012008A0E016E010EA5
:10339600026E770E036E31EC1DF0000E2C6E000EE1
:1033A6002D6E200E2E6E410E2F6EF60E136E280E0B
:1033B600146E9C0E156E400E166E7750016E026AE4
:1033C600036A046A010E06EC16F001C00FF002C093
:1033D60010F003C011F004C012F0F0EC0CF00FC0B6
:1033E60028F010C029F011C02AF012C02BF0D3EC3F
:1033F60010F028C041F029C042F02AC043F02BC08B
:1034060044F04CEC1AF04150FAEC21F0E60E4B6E0B
:10341600010E4C6E0A0E4D6E000E2C6E000E2D6EB9
:10342600200E2E6E410E2F6EF60E136E280E146EA3
:103436009C0E156E400E166E7750016E026A036A78
:10344600046A010E06EC16F001C00FF002C010F07F
:1034560003C011F004C012F0F0EC0CF00FC028F01D
:1034660010C029F011C02AF012C02BF0D3EC10F0D6
:1034760028C041F029C042F02AC043F02BC044F0D6
:103486004CEC1AF041C04EF042C04FF0B2EC20F0C6
:103496001200433444344A6E4A50D8A455EF1AF009
:1034A60057EF1AF061EF1AF0000E416E000E426EF1
:1034B600000E436E000E446ECEEF1AF041C045F08A
:1034C60042C046F043C047F044C048F0200E71EFBA
:1034D6001AF0D8904832473246324532E82E6CEF21
:1034E6001AF04550496E438EFF0E4116FF0E4216E6
:1034F600FF0E4316000E4416960E4A5E4ABE88EF2D
:103506001AF086EF1AF09EEF1AF04A50800A970FCB
:10351600D8B090EF1AF092EF1AF094EF1AF057EF36
:103526001AF0D89044324332423241324A3E94EF46
:103536001AF0B6EF1AF01F0E4A64A4EF1AF0A6EFBF
:103546001AF0AEEF1AF057EF1AF0D890413642361D
:10355600433644364A064A50D8A4B4EF1AF0B6EFBA
:103566001AF0A8EF1AF04950D8B4BCEF1AF0BEEF23
:103576001AF0C6EF1AF0441E431E421E416C000E9E
:1035860042224322442241C041F042C042F043C09D
:1035960043F044C044F01200000183518411D8A4C2
:1035A600D7EF1AF0D9EF1AF0DBEF1AF042EF1BF063
:1035B600C29020EE03F08351D9268451DA22DF50DF
:1035C600856F854785478547C0508519C70B85197F
:1035D600C06E20EE04F08351D9268451DA22DF50E2
:1035E600856FC0508519F80B8519C06E20EE05F061
:1035F6008351D9268451DA22DF50856F8547854766
:10360600C2508519C30B8519C26E20EE05F0835191
:10361600D9268451DA22DF5043EC1BF09E9CF28EB1
:10362600F28C9D8C83C0D9FF84C0DAFFDECF6CF0AC
:10363600DDCF6DF0000120EE06F08351D9268451CE
:10364600DA22DFB229EF1BF02CEF1BF0010E2DEF73
:103656001BF0000E61EC21F0000120EE06F0835114
:10366600D9268451DA22DFB03BEF1BF03EEF1BF088
:10367600010E3FEF1BF0000E13EC21F0C28012008A
:103686000001826F6EEF1BF09280B0EF1BF092820A
:10369600B0EF1BF09284B0EF1BF09286B0EF1BF0F8
:1036A600928AB0EF1BF09680B0EF1BF09682B0EFD7
:1036B6001BF09684B0EF1BF09384B0EF1BF093865B
:1036C600B0EF1BF09382B0EF1BF09388B0EF1BF0C6
:1036D6009380B0EF1BF000018251806F816B8151A6
:1036E600000AD8B479EF1BF0B0EF1BF08051000A46
:1036F600D8B447EF1BF0010AD8B44AEF1BF0030A0F
:10370600D8B44DEF1BF0010AD8B450EF1BF0070AEE
:10371600D8B453EF1BF0010AD8B456EF1BF0030AD6
:10372600D8B459EF1BF0010AD8B45CEF1BF00F0AAE
:10373600D8B45FEF1BF0010AD8B462EF1BF0030A9E
:10374600D8B465EF1BF0010AD8B468EF1BF0070A7E
:10375600D8B46BEF1BF0B0EF1BF01200000120EEA7
:1037660006F08051D9268151DA22DFA0BDEF1BF089
:10377600BFEF1BF01DEF1CF0AB8820EE06F080516A
:10378600D9268151DA22DFA2CBEF1BF0CDEF1BF059
:10379600F1EF1BF09D9AF28EF28C9D8A20EE0AF0D4
:1037A6008051D9268151DA22DECFF4F0DDCFF5F053
:1037B60020EE0CF08051D9268151DA22DECFF2F0CC
:1037C600DDCFF3F020EE0EF08051D9268151DA22BA
:1037D600DECFF0F0DDCFF1F0FFEF1BF020EE06F0CC
:1037E6008051D9268151DA22DFB2FCEF1BF0FEEFC1
:1037F6001BF0FFEF1BF09D9A20EE06F08051D926B4
:103806008151DA22DFA40AEF1CF00CEF1CF00FEF57
:103816001CF0AC8C1DEF1CF020EE06F08051D92672
:103826008151DA22DFB41AEF1CF01CEF1CF01DEFF9
:103836001CF0AC9C1200000E066E04BE27EF1CF0B6
:1038460025EF1CF02DEF1CF0036C041ED8B0042AE3
:10385600010E066E02BE34EF1CF032EF1CF03AEF9A
:103866001CF0016C021ED8B0022A010E061A000EC8
:10387600086E000E076E03500410D8B445EF1CF016
:1038860047EF1CF06FEF1CF0010E056E4FEF1CF0BA
:10389600D89003360436052A04AE54EF1CF056EFD2
:1038A6001CF04BEF1CF0D890073608360350015C2D
:1038B60004500258D8A062EF1CF064EF1CF069EFC8
:1038C6001CF00350015E0450025A0780D89004325F
:1038D6000332052E56EF1CF00650D8B475EF1CF0D7
:1038E60077EF1CF07BEF1CF0076C081ED8B0082A97
:1038F60007C001F008C002F01200000120EE04F03B
:103906008051D9268151DA22DFA08CEF1CF08EEF90
:103916001CF0D8EF1CF0AC8A20EE04F08051D926BA
:103926008151DA22DFA29AEF1CF09CEF1CF0ACEF7B
:103936001CF09D98F28EF28C9D8820EE08F0805146
:10394600D9268151DA22DECFF6F0DDCFF7F0BAEFD5
:103956001CF020EE04F08051D9268151DA22DFB224
:10396600B7EF1CF0B9EF1CF0BAEF1CF09D9820EEF3
:1039760004F08051D9268151DA22DFA4C5EF1CF06C
:10398600C7EF1CF0CAEF1CF0AC8CD8EF1CF020EE91
:1039960004F08051D9268151DA22DFB4D5EF1CF02C
:1039A600D7EF1CF0D8EF1CF0AC9C1200000E066E90
:1039B60002BEE2EF1CF0E0EF1CF0E8EF1CF0016C39
:1039C600021ED8B0022A010E066E04BEEFEF1CF0EE
:1039D600EDEF1CF0F3EF1CF0036C041ED8B0042AC4
:1039E60003500410D8B4FAEF1CF0FCEF1CF020EFE3
:1039F6001DF0010E056E04EF1DF0D8900336043657
:103A0600052A04AE09EF1DF00BEF1DF000EF1DF0C7
:103A16000350015C04500258D8A014EF1DF016EFB5
:103A26001DF01AEF1DF00350015E0450025AD890A3
:103A360004320332052E0BEF1DF00650D8B426EFE4
:103A46001DF028EF1DF02CEF1DF0016C021ED8B002
:103A5600022A01C001F002C002F012000150021059
:103A6600D8B438EF1DF03AEF1DF042EF1DF00350C9
:103A7600D8A440EF1DF042EF1DF044EF1DF088EF93
:103A86001DF020EE06F00150D9260250DA22DFA200
:103A96004FEF1DF051EF1DF063EF1DF0C450056EA2
:103AA600046AC3500424066E000E0520076E0350F8
:103AB600D96EDA6A06C0DEFF07C0DDFF88EF1DF0AB
:103AC60020EE06F00150D9260250DA22DFB26EEF60
:103AD6001DF070EF1DF088EF1DF0C450056E046AEE
:103AE600C3500424066E000E0520076E060E086EEF
:103AF600073407320632082E7BEF1DF00350D96ECD
:103B0600DA6A06C0DEFF07C0DDFF12000350D8B434
:103B16008FEF1DF091EF1DF099EF1DF00350D8A423
:103B260097EF1DF099EF1DF09EEF1DF001504BEC45
:103B360022F0DDEF1DF00350D96EDA6A0A0ED9269F
:103B4600DE50DE10D8B4AAEF1DF0ACEF1DF0C5EFC5
:103B56001DF00350D96EDA6A0A0ED9260350E16EBB
:103B6600E26A030EE126DE50E65CE650800A086E45
:103B7600DE50800A0858D8B0C3EF1DF0C5EF1DF01F
:103B8600DDEF1DF00350D96EDA6A030ED926DF5039
:103B9600046E0350D96EDA6ADF500424D96EDA6AED
:103BA60001C0DFFF0350D96EDA6A030ED926DE2A7A
:103BB600000EDD22120021EEB1F010EE2EF0050E01
:103BC600DBCFE3FFE806FCE2000E346E2D50D8A4EE
:103BD600EFEF1DF0F1EF1DF0F3EF1DF028EF1EF0F3
:103BE6002DC001F0000E036E200E026E000E056E53
:103BF600050E046E79EC21F02D50D96EDA6A050EA9
:103C0600D926DF6A2E0E1A6E010E1B6E2BC01CF013
:103C16002CC01DF02DEC21F01CEF1EF034502E0FA1
:103C2600D96EDA6A2D503424E16EE26ADFCFE7FFFF
:103C3600342A34502E0FD96EDA6ADF50D8A426EF14
:103C46001EF028EF1EF011EF1EF01200000E196E86
:103C5600000E1A6E160654EF1EF014C00FF0165022
:103C6600800F106EA6EC1FF071EF1EF014C00FF05F
:103C76001650C00F106EA6EC1FF071EF1EF014C0A8
:103C86000FF01650940F106EA6EC1FF071EF1EF099
:103C960014C00FF01650D40F106EA6EC1FF071EF83
:103CA6001EF01550176E186A1850000AD8B45EEF49
:103CB6001EF071EF1EF01750010AD8B430EF1EF057
:103CC600030AD8B439EF1EF0010AD8B442EF1EF049
:103CD600070AD8B44BEF1EF071EF1EF0000E12006B
:103CE6003738392F3435362A3132332D23303D2BB0
:103CF600800F810F820F830F840F1F1F0F07161C63
:103D060018101F00001F1F1F1F1F1F1F1E1C0D073F
:103D1600030110181C06031F1F1F1F1F1F0E041F61
:103D26001F1F0103070E1C1F1F1F1B03070F1E1C4F
:103D360018101F000000001F1F1F13181C1E0F075E
:103D4600030110181C06071F1F1F1F1F1F0E0E1F23
:103D56001F1F0103070E1E1F1F1F802500000300E3
:103D66000000000000000000000090330005050080
:013D7600024A
:103D7800E60EF66E3C0EF76E000EF86E01EE00F0E1
:103D880010EE91F00900F5CFEEFFE550E150FAE1B1
:103D98007C0EF66E430EF76E000EF86E00EEC3F062
:103DA80010EE29F00900F5CFEEFFE550E150FAE1F9
:103DB8007E0EF66E440EF76E000EF86E00EE7AF088
:103DC80010EE04F00900F5CFEEFFE550E150FAE1FE
:103DD80001EE91F0260EEE6AE806FDE100EEECF049
:103DE800140EEE6AE806FDE100EE5EF01C0EEE6AC7
:103DF800E806FDE17E907E920001D3EF20F0000EF0
:103E08000001906F000E916F8E51D8A40EEF1FF035
:103E180010EF1FF014EF1FF0000E926F3AEF1FF033
:103E28008EC080F0000E816FE0EC16F08EC088F036
:103E380000018F390F0B896F3DEC20F00001916F65
:103E48008EC088F0A8EC21F00001916F8EC088F038
:103E58008FC089F03DEC20F00001916F8EC088F092
:103E6800A8EC21F00001916F010E926F925112009F
:103E7800000E1F6E000E206E1B50D8B446EF1FF0C8
:103E880048EF1FF060EF1FF01E50D8B44EEF1FF040
:103E980050EF1FF060EF1FF0050E1C6056EF1FF08B
:103EA80058EF1FF060EF1FF0280E1D645EEF1FF043
:103EB80060EF1FF062EF1FF072EF1FF01BC014F0ED
:103EC8001CC015F01DC016F029EC1EF0206E1BC09A
:103ED80014F01EC015F00CEC20F0206E1200000E3D
:103EE80000018A6F8851D8B47CEF1FF07EEF1FF075
:103EF8008EEF1FF08851D96EDA6ADF30E832E83287
:103F0800070B896F070E89658CEF1FF08EEF1FF086
:103F180092EF1FF0000E8B6FA4EF1FF088C080F0A7
:103F2800000E816F7EEC17F000018A6F88C080F068
:103F3800000E816FE0EC16F000018A6F010E8B6FA6
:103F48008B511200000E116E000E126E0F50D8A485
:103F5800B0EF1FF0B2EF1FF0B6EF1FF0000E136EB8
:103F6800D7EF1FF00FC001F0000E026E1CEC18F026
:103F78000FC009F010380F0B0A6E67EC20F0126EB4
:103F88000FC009F0D3EC21F0126E0FC009F010C079
:103F98000AF067EC20F0126E0FC009F0D3EC21F0A4
:103FA800126E010E136E13501200000E116E000EE9
:103FB800126E0F50D8A4E3EF1FF0E5EF1FF0E9EF02
:103FC8001FF0000E136E0AEF20F00FC001F0010E73
:103FD800026E1CEC18F00FC009F010380F0B0A6EB7
:103FE80067EC20F0126E0FC009F0D3EC21F0126ECE
:103FF8000FC009F010C00AF067EC20F0126E0FC075
:1040080009F0D3EC21F0126E010E136E135012005A
:10401800000E166E000E176E1450D8B416EF20F06E
:1040280018EF20F020EF20F01550D8A41EEF20F054
:1040380020EF20F02EEF20F0000E186E3BEF20F05E
:1040480014C00FF01550D96EDA6ADF50106ED9EC33
:104058001FF0152A1550D96EDA6ADF50D8A437EF49
:1040680020F039EF20F024EF20F0010E186E1850E0
:104078001200000E00018C6F000E8D6F5CEF20F0B7
:1040880088518D25020F806F8DC08AF089C08BF012
:104098008A2B51EF20F0D8908B338A2F4FEF20F0E6
:1040A80000018B51010B816FE0EC16F000018D2BA4
:1040B800E5518D5DD8A063EF20F065EF20F044EF67
:1040C80020F08C511200000E0D6E000E0E6E83EF64
:1040D80020F009500E24020F016E0EC00BF00AC02A
:1040E8000CF00B2A7AEF20F0D8900C320B2E78EFD8
:1040F80020F00C50010B026E1CEC18F00E2A000187
:10410800E5510E5CD8A08BEF20F08DEF20F06DEF1D
:1041180020F00D5012000101B751B811D8A497EF43
:1041280020F099EF20F09BEF20F0B1EF20F0AB9E4C
:10413800948E948CB7C1B7F0B8C1B8F003EC08F00E
:10414800B7C180F0B8C181F080EC1CF0B7C180F035
:10415800B8C181F0B1EC1BF0AB8E1200000E506EAE
:10416800000E516E4B50D8A4BCEF20F0BEEF20F0EB
:10417800C0EF20F0D2EF20F04EC02BF04FC02CF053
:10418800780E2D6EDEEC1DF04BC01BF04CC01CF001
:104198004DC01DF0780E1E6E3CEC1FF012003CEC7A
:1041A80022F07A0E0101B76F010EB86F8FEC20F084
:1041B8008A0E0001836F010E846FCFEC1AF0E60EB1
:1041C8000001936FB6EC18F08A0E0001806F010EA3
:1041D800816FE7EC21F0E8EF20F007EF00F017C05F
:1041E80019F0FFEF20F016C00BF0190E0C6E18C076
:1041F8000DF043EC14F019C0F6FF100EF76EF86AD4
:104208000800F5500009D8A40CEF21F00EEF21F0BA
:10421800F7EF20F0000E176E000E166E1200000168
:10422800806F00018005D8A41CEF21F01EEF21F05B
:1042380022EF21F0C18AC1882CEF21F08051D8A447
:1042480028EF21F02AEF21F02CEF21F0C19AC19834
:1042580012001C0E1E6E1AC01FF0000E236E000EF8
:10426800226E000E2A6E000E296E1F0E166E1BC0DF
:1042780017F01E0E186EF3EC20F01A502224D96E97
:10428800DA6ADF6A120008BE4CEF21F04EEF21F027
:1042980054EF21F007C007F008C008F060EF21F0E4
:1042A80007C009F008C00AF0091E0A1E094A0A2AAE
:1042B80009C007F00AC008F012000001806F000171
:1042C8008005D8A46AEF21F06CEF21F06FEF21F0A0
:1042D800C08E78EF21F08051D8A475EF21F077EFE8
:1042E80021F078EF21F0C09E120001C006F083EFA4
:1042F80021F00650D96EDA6A02C0DFFF062A0406EA
:10430800D8A00506042806E10528D8A48EEF21F0D8
:1043180090EF21F07DEF21F012009E9C6C506D1003
:10432800D8B499EF21F09BEF21F0A7EF21F002D844
:10433800A7EF21F00500FA6E6C50FD6E6D50FE6E11
:10434800FF6AFA5012001200000E0001896F8829D6
:10435800806F010E816FE0EC16F0030EE82EFED799
:10436800000000018829806F000E816FE0EC16F0D4
:10437800000E1200890F8A0F8B0F8C0F8D0F920F72
:10438800930F940F950F960F333B001119002B00D4
:0D43980023002900210004222A020A121A23
:1043A600000E0A6E0928016E010E026E1CEC18F052
:1043B600030EE82EFED700000928016E000E026EDD
:1043C6001CEC18F0000E1200000180518111D8A4D7
:1043D600EFEF21F0F1EF21F0F5EF21F0000E826F03
:1043E600F8EF21F0C282010E826F82511200016E37
:1043F600ACA200EF22F002EF22F007EF22F09D8838
:1044060001C0ADFF07EF22F01200016EF2900150DD
:10441600D8A410EF22F012EF22F014EF22F014EFDE
:1044260022F01200016EF2900150D8A41DEF22F086
:104436001FEF22F021EF22F021EF22F01200016E91
:10444600F2900150D8A42AEF22F02CEF22F02EEFA2
:1044560022F02EEF22F01200016EF2900150D8A445
:1044660037EF22F039EF22F03BEF22F03BEF22F05C
:10447600120049EC22F0120001010101F092120033
:10448600F0901200F29212009D9812001200120093
:02449600120012
:020000040030CA
:0E000000FF02091EFF8181FF0FC00FE00F40BD
:00000001FF
